{
  "contractName": "Calculator",
  "abi": [
    {
      "inputs": [
        {
          "internalType": "string",
          "name": "_data",
          "type": "string"
        },
        {
          "internalType": "string",
          "name": "_nonce",
          "type": "string"
        },
        {
          "internalType": "uint256",
          "name": "_tolerance",
          "type": "uint256"
        },
        {
          "internalType": "uint256",
          "name": "_stars",
          "type": "uint256"
        }
      ],
      "name": "checkHash",
      "outputs": [
        {
          "internalType": "bool",
          "name": "",
          "type": "bool"
        },
        {
          "internalType": "bytes32",
          "name": "",
          "type": "bytes32"
        }
      ],
      "stateMutability": "pure",
      "type": "function",
      "constant": true
    }
  ],
  "bytecode": "0x608060405234801561001057600080fd5b506108bf806100206000396000f3fe608060405234801561001057600080fd5b506004361061002b5760003560e01c8063e6c29f3314610030575b600080fd5b61004a600480360381019061004591906103ef565b610061565b60405161005892919061054a565b60405180910390f35b60008060006002878761007388610187565b60405160200161008593929190610519565b6040516020818303038152906040526040516100a19190610502565b602060405180830381855afa1580156100be573d6000803e3d6000fd5b5050506040513d601f19601f820116820180604052508101906100e191906103c6565b905060006001905060005b8581101561017557600060f81b838260208110610132577f4e487b7100000000000000000000000000000000000000000000000000000000600052603260045260246000fd5b1a60f81b7effffffffffffffffffffffffffffffffffffffffffffffffffffffffffffff19161461016257600091505b808061016d90610743565b9150506100ec565b50808293509350505094509492505050565b606060008214156101cf576040518060400160405280600181526020017f3000000000000000000000000000000000000000000000000000000000000000815250905061032f565b600082905060005b600082146102015780806101ea90610743565b915050600a826101fa919061064b565b91506101d7565b60008167ffffffffffffffff811115610243577f4e487b7100000000000000000000000000000000000000000000000000000000600052604160045260246000fd5b6040519080825280601f01601f1916602001820160405280156102755781602001600182028036833780820191505090505b5090505b600085146103285760018261028e919061067c565b9150600a8561029d919061078c565b60306102a991906105f5565b60f81b8183815181106102e5577f4e487b7100000000000000000000000000000000000000000000000000000000600052603260045260246000fd5b60200101907effffffffffffffffffffffffffffffffffffffffffffffffffffffffffffff1916908160001a905350600a85610321919061064b565b9450610279565b8093505050505b919050565b600061034761034284610598565b610573565b90508281526020810184848401111561035f57600080fd5b61036a8482856106d0565b509392505050565b6000815190506103818161085b565b92915050565b600082601f83011261039857600080fd5b81356103a8848260208601610334565b91505092915050565b6000813590506103c081610872565b92915050565b6000602082840312156103d857600080fd5b60006103e684828501610372565b91505092915050565b6000806000806080858703121561040557600080fd5b600085013567ffffffffffffffff81111561041f57600080fd5b61042b87828801610387565b945050602085013567ffffffffffffffff81111561044857600080fd5b61045487828801610387565b9350506040610465878288016103b1565b9250506060610476878288016103b1565b91505092959194509250565b61048b816106b0565b82525050565b61049a816106bc565b82525050565b60006104ab826105c9565b6104b581856105df565b93506104c58185602086016106df565b80840191505092915050565b60006104dc826105d4565b6104e681856105ea565b93506104f68185602086016106df565b80840191505092915050565b600061050e82846104a0565b915081905092915050565b600061052582866104d1565b915061053182856104d1565b915061053d82846104d1565b9150819050949350505050565b600060408201905061055f6000830185610482565b61056c6020830184610491565b9392505050565b600061057d61058e565b90506105898282610712565b919050565b6000604051905090565b600067ffffffffffffffff8211156105b3576105b261081b565b5b6105bc8261084a565b9050602081019050919050565b600081519050919050565b600081519050919050565b600081905092915050565b600081905092915050565b6000610600826106c6565b915061060b836106c6565b9250827fffffffffffffffffffffffffffffffffffffffffffffffffffffffffffffffff038211156106405761063f6107bd565b5b828201905092915050565b6000610656826106c6565b9150610661836106c6565b925082610671576106706107ec565b5b828204905092915050565b6000610687826106c6565b9150610692836106c6565b9250828210156106a5576106a46107bd565b5b828203905092915050565b60008115159050919050565b6000819050919050565b6000819050919050565b82818337600083830152505050565b60005b838110156106fd5780820151818401526020810190506106e2565b8381111561070c576000848401525b50505050565b61071b8261084a565b810181811067ffffffffffffffff8211171561073a5761073961081b565b5b80604052505050565b600061074e826106c6565b91507fffffffffffffffffffffffffffffffffffffffffffffffffffffffffffffffff821415610781576107806107bd565b5b600182019050919050565b6000610797826106c6565b91506107a2836106c6565b9250826107b2576107b16107ec565b5b828206905092915050565b7f4e487b7100000000000000000000000000000000000000000000000000000000600052601160045260246000fd5b7f4e487b7100000000000000000000000000000000000000000000000000000000600052601260045260246000fd5b7f4e487b7100000000000000000000000000000000000000000000000000000000600052604160045260246000fd5b6000601f19601f8301169050919050565b610864816106bc565b811461086f57600080fd5b50565b61087b816106c6565b811461088657600080fd5b5056fea26469706673582212204e21cee2a44534bfd450013b40ba8d6446105fd7f8b6c450e4ee09ef504976c364736f6c63430008030033",
  "immutableReferences": {},
  "source": "// SPDX-License-Identifier: MIT\npragma solidity ^0.8.0;    \nimport \"@openzeppelin/contracts/utils/Strings.sol\";\n\n\ncontract Calculator{\n\nusing Strings for uint256;\n\nfunction checkHash(\n        string memory _data,\n        string memory _nonce,\n        uint256 _tolerance,\n        uint256 _stars)public pure returns(bool,bytes32){\n    \n        bytes32 _hashFinal=sha256(abi.encodePacked(\n        _data,\n        _nonce\n        ,Strings.toString(_tolerance)\n        ));\n\n        bool respuesta=true;\n\n\n        for (uint256 index = 0; index < _stars; index++) {\n            if (_hashFinal[index]!=0x00) {\n                    respuesta=false;  \n                }\n        \n        }\n\n        return (respuesta,_hashFinal);\n        \n    }\n\n}",
  "sourcePath": "/Users/aarontolentino/Documents/A-Hashimas/A-Hashimon/contracts/Calculator.sol",
  "compiler": {
    "name": "solc",
    "version": "0.8.3+commit.8d00100c.Emscripten.clang"
  },
  "schemaVersion": "3.4.1",
  "updatedAt": "2022-12-18T08:22:28.814Z",
  "networkType": "ethereum",
  "devdoc": {
    "kind": "dev",
    "methods": {},
    "version": 1
  },
  "userdoc": {
    "kind": "user",
    "methods": {},
    "version": 1
  }
}