{
  "contractName": "Hashi",
  "abi": [
    {
      "inputs": [
        {
          "internalType": "contract Hashimon",
          "name": "_contrato",
          "type": "address"
        }
      ],
      "stateMutability": "nonpayable",
      "type": "constructor"
    },
    {
      "anonymous": false,
      "inputs": [
        {
          "indexed": true,
          "internalType": "address",
          "name": "owner",
          "type": "address"
        },
        {
          "indexed": true,
          "internalType": "address",
          "name": "spender",
          "type": "address"
        },
        {
          "indexed": false,
          "internalType": "uint256",
          "name": "value",
          "type": "uint256"
        }
      ],
      "name": "Approval",
      "type": "event"
    },
    {
      "anonymous": false,
      "inputs": [
        {
          "indexed": true,
          "internalType": "address",
          "name": "from",
          "type": "address"
        },
        {
          "indexed": true,
          "internalType": "address",
          "name": "to",
          "type": "address"
        },
        {
          "indexed": false,
          "internalType": "uint256",
          "name": "value",
          "type": "uint256"
        }
      ],
      "name": "Transfer",
      "type": "event"
    },
    {
      "inputs": [
        {
          "internalType": "address",
          "name": "owner",
          "type": "address"
        },
        {
          "internalType": "address",
          "name": "spender",
          "type": "address"
        }
      ],
      "name": "allowance",
      "outputs": [
        {
          "internalType": "uint256",
          "name": "",
          "type": "uint256"
        }
      ],
      "stateMutability": "view",
      "type": "function"
    },
    {
      "inputs": [
        {
          "internalType": "address",
          "name": "spender",
          "type": "address"
        },
        {
          "internalType": "uint256",
          "name": "amount",
          "type": "uint256"
        }
      ],
      "name": "approve",
      "outputs": [
        {
          "internalType": "bool",
          "name": "",
          "type": "bool"
        }
      ],
      "stateMutability": "nonpayable",
      "type": "function"
    },
    {
      "inputs": [
        {
          "internalType": "address",
          "name": "account",
          "type": "address"
        }
      ],
      "name": "balanceOf",
      "outputs": [
        {
          "internalType": "uint256",
          "name": "",
          "type": "uint256"
        }
      ],
      "stateMutability": "view",
      "type": "function"
    },
    {
      "inputs": [
        {
          "internalType": "uint256",
          "name": "amount",
          "type": "uint256"
        }
      ],
      "name": "burn",
      "outputs": [],
      "stateMutability": "nonpayable",
      "type": "function"
    },
    {
      "inputs": [
        {
          "internalType": "address",
          "name": "account",
          "type": "address"
        },
        {
          "internalType": "uint256",
          "name": "amount",
          "type": "uint256"
        }
      ],
      "name": "burnFrom",
      "outputs": [],
      "stateMutability": "nonpayable",
      "type": "function"
    },
    {
      "inputs": [
        {
          "internalType": "address",
          "name": "",
          "type": "address"
        },
        {
          "internalType": "uint256",
          "name": "",
          "type": "uint256"
        }
      ],
      "name": "checkpoints",
      "outputs": [
        {
          "internalType": "uint256",
          "name": "",
          "type": "uint256"
        }
      ],
      "stateMutability": "view",
      "type": "function"
    },
    {
      "inputs": [],
      "name": "decimals",
      "outputs": [
        {
          "internalType": "uint8",
          "name": "",
          "type": "uint8"
        }
      ],
      "stateMutability": "view",
      "type": "function"
    },
    {
      "inputs": [
        {
          "internalType": "address",
          "name": "spender",
          "type": "address"
        },
        {
          "internalType": "uint256",
          "name": "subtractedValue",
          "type": "uint256"
        }
      ],
      "name": "decreaseAllowance",
      "outputs": [
        {
          "internalType": "bool",
          "name": "",
          "type": "bool"
        }
      ],
      "stateMutability": "nonpayable",
      "type": "function"
    },
    {
      "inputs": [
        {
          "internalType": "uint256",
          "name": "",
          "type": "uint256"
        }
      ],
      "name": "has_deposited",
      "outputs": [
        {
          "internalType": "bool",
          "name": "",
          "type": "bool"
        }
      ],
      "stateMutability": "view",
      "type": "function"
    },
    {
      "inputs": [
        {
          "internalType": "address",
          "name": "spender",
          "type": "address"
        },
        {
          "internalType": "uint256",
          "name": "addedValue",
          "type": "uint256"
        }
      ],
      "name": "increaseAllowance",
      "outputs": [
        {
          "internalType": "bool",
          "name": "",
          "type": "bool"
        }
      ],
      "stateMutability": "nonpayable",
      "type": "function"
    },
    {
      "inputs": [],
      "name": "name",
      "outputs": [
        {
          "internalType": "string",
          "name": "",
          "type": "string"
        }
      ],
      "stateMutability": "view",
      "type": "function"
    },
    {
      "inputs": [
        {
          "internalType": "uint256",
          "name": "",
          "type": "uint256"
        }
      ],
      "name": "staking_accounts",
      "outputs": [
        {
          "internalType": "address",
          "name": "",
          "type": "address"
        }
      ],
      "stateMutability": "view",
      "type": "function"
    },
    {
      "inputs": [],
      "name": "symbol",
      "outputs": [
        {
          "internalType": "string",
          "name": "",
          "type": "string"
        }
      ],
      "stateMutability": "view",
      "type": "function"
    },
    {
      "inputs": [],
      "name": "totalSupply",
      "outputs": [
        {
          "internalType": "uint256",
          "name": "",
          "type": "uint256"
        }
      ],
      "stateMutability": "view",
      "type": "function"
    },
    {
      "inputs": [
        {
          "internalType": "address",
          "name": "to",
          "type": "address"
        },
        {
          "internalType": "uint256",
          "name": "amount",
          "type": "uint256"
        }
      ],
      "name": "transfer",
      "outputs": [
        {
          "internalType": "bool",
          "name": "",
          "type": "bool"
        }
      ],
      "stateMutability": "nonpayable",
      "type": "function"
    },
    {
      "inputs": [
        {
          "internalType": "address",
          "name": "from",
          "type": "address"
        },
        {
          "internalType": "address",
          "name": "to",
          "type": "address"
        },
        {
          "internalType": "uint256",
          "name": "amount",
          "type": "uint256"
        }
      ],
      "name": "transferFrom",
      "outputs": [
        {
          "internalType": "bool",
          "name": "",
          "type": "bool"
        }
      ],
      "stateMutability": "nonpayable",
      "type": "function"
    },
    {
      "inputs": [
        {
          "internalType": "uint256",
          "name": "tokenId",
          "type": "uint256"
        }
      ],
      "name": "aprovar",
      "outputs": [],
      "stateMutability": "nonpayable",
      "type": "function"
    },
    {
      "inputs": [
        {
          "internalType": "uint256",
          "name": "tokenId",
          "type": "uint256"
        }
      ],
      "name": "deposit",
      "outputs": [],
      "stateMutability": "nonpayable",
      "type": "function"
    },
    {
      "inputs": [
        {
          "internalType": "uint256",
          "name": "tokenId",
          "type": "uint256"
        }
      ],
      "name": "withdraw",
      "outputs": [],
      "stateMutability": "nonpayable",
      "type": "function"
    },
    {
      "inputs": [
        {
          "internalType": "address",
          "name": "beneficiary",
          "type": "address"
        },
        {
          "internalType": "uint256",
          "name": "tokenId",
          "type": "uint256"
        }
      ],
      "name": "collect",
      "outputs": [],
      "stateMutability": "nonpayable",
      "type": "function"
    },
    {
      "inputs": [
        {
          "internalType": "uint256",
          "name": "tokenId",
          "type": "uint256"
        }
      ],
      "name": "hashimaOnStaking",
      "outputs": [
        {
          "internalType": "bool",
          "name": "",
          "type": "bool"
        }
      ],
      "stateMutability": "view",
      "type": "function"
    },
    {
      "inputs": [
        {
          "internalType": "address",
          "name": "beneficiary",
          "type": "address"
        },
        {
          "internalType": "uint256",
          "name": "tokenId",
          "type": "uint256"
        }
      ],
      "name": "calculateReward",
      "outputs": [
        {
          "internalType": "uint256",
          "name": "",
          "type": "uint256"
        }
      ],
      "stateMutability": "view",
      "type": "function"
    }
  ],
  "bytecode": "0x60806040523480156200001157600080fd5b5060405162002dea38038062002dea8339818101604052810190620000379190620001e6565b6040518060400160405280600581526020017f48617368690000000000000000000000000000000000000000000000000000008152506040518060400160405280600581526020017f48415348490000000000000000000000000000000000000000000000000000008152508160039080519060200190620000bb9291906200011f565b508060049080519060200190620000d49291906200011f565b50505080600860006101000a81548173ffffffffffffffffffffffffffffffffffffffff021916908373ffffffffffffffffffffffffffffffffffffffff16021790555050620002d9565b8280546200012d906200025a565b90600052602060002090601f0160209004810192826200015157600085556200019d565b82601f106200016c57805160ff19168380011785556200019d565b828001600101855582156200019d579182015b828111156200019c5782518255916020019190600101906200017f565b5b509050620001ac9190620001b0565b5090565b5b80821115620001cb576000816000905550600101620001b1565b5090565b600081519050620001e081620002bf565b92915050565b600060208284031215620001f957600080fd5b60006200020984828501620001cf565b91505092915050565b60006200021f826200023a565b9050919050565b6000620002338262000212565b9050919050565b600073ffffffffffffffffffffffffffffffffffffffff82169050919050565b600060028204905060018216806200027357607f821691505b602082108114156200028a576200028962000290565b5b50919050565b7f4e487b7100000000000000000000000000000000000000000000000000000000600052602260045260246000fd5b620002ca8162000226565b8114620002d657600080fd5b50565b612b0180620002e96000396000f3fe608060405234801561001057600080fd5b50600436106101425760003560e01c806357ddb1ed116100b8578063a457c2d71161007c578063a457c2d71461039b578063a9059cbb146103cb578063af9d1632146103fb578063b6b55f251461042b578063dd62ed3e14610447578063e68039c61461047757610142565b806357ddb1ed146102f95780636b8357ac1461031557806370a082311461033157806379cc67901461036157806395d89b411461037d57610142565b806323b872dd1161010a57806323b872dd146102135780632e1a7d4d14610243578063313ce5671461025f578063386082351461027d57806339509351146102ad57806342966c68146102dd57610142565b806306fdde0314610147578063095ea7b3146101655780630cdfebfa1461019557806318160ddd146101c55780631852e8d9146101e3575b600080fd5b61014f6104a7565b60405161015c9190611fdf565b60405180910390f35b61017f600480360381019061017a9190611c35565b610539565b60405161018c9190611fc4565b60405180910390f35b6101af60048036038101906101aa9190611c35565b61055c565b6040516101bc91906121c1565b60405180910390f35b6101cd610581565b6040516101da91906121c1565b60405180910390f35b6101fd60048036038101906101f89190611c35565b61058b565b60405161020a91906121c1565b60405180910390f35b61022d60048036038101906102289190611be6565b61072a565b60405161023a9190611fc4565b60405180910390f35b61025d60048036038101906102589190611cb2565b610759565b005b610267610924565b6040516102749190612205565b60405180910390f35b61029760048036038101906102929190611cb2565b61092d565b6040516102a49190611fc4565b60405180910390f35b6102c760048036038101906102c29190611c35565b610957565b6040516102d49190611fc4565b60405180910390f35b6102f760048036038101906102f29190611cb2565b61098e565b005b610313600480360381019061030e9190611cb2565b6109a2565b005b61032f600480360381019061032a9190611c35565b610a34565b005b61034b60048036038101906103469190611b58565b610aa6565b60405161035891906121c1565b60405180910390f35b61037b60048036038101906103769190611c35565b610aee565b005b610385610b0e565b6040516103929190611fdf565b60405180910390f35b6103b560048036038101906103b09190611c35565b610ba0565b6040516103c29190611fc4565b60405180910390f35b6103e560048036038101906103e09190611c35565b610c17565b6040516103f29190611fc4565b60405180910390f35b61041560048036038101906104109190611cb2565b610c3a565b6040516104229190611fc4565b60405180910390f35b61044560048036038101906104409190611cb2565b610c5a565b005b610461600480360381019061045c9190611baa565b61108b565b60405161046e91906121c1565b60405180910390f35b610491600480360381019061048c9190611cb2565b611112565b60405161049e9190611f49565b60405180910390f35b6060600380546104b6906125c4565b80601f01602080910402602001604051908101604052809291908181526020018280546104e2906125c4565b801561052f5780601f106105045761010080835404028352916020019161052f565b820191906000526020600020905b81548152906001019060200180831161051257829003601f168201915b5050505050905090565b600080610544611145565b905061055181858561114d565b600191505092915050565b6005602052816000526040600020602052806000526040600020600091509150505481565b6000600254905090565b60006006600083815260200190815260200160002060009054906101000a900460ff166105bb5760009050610724565b6000600860009054906101000a900473ffffffffffffffffffffffffffffffffffffffff1673ffffffffffffffffffffffffffffffffffffffff16639507d39a846040518263ffffffff1660e01b815260040161061891906121c1565b60006040518083038186803b15801561063057600080fd5b505afa158015610644573d6000803e3d6000fd5b505050506040513d6000823e3d601f19601f8201168201806040525081019061066d9190611c71565b6080015190506000816040836103e8610686919061236c565b8485610692919061248a565b61069c919061248a565b6106a691906122e8565b6106b091906124e4565b90506000600560008773ffffffffffffffffffffffffffffffffffffffff1673ffffffffffffffffffffffffffffffffffffffff1681526020019081526020016000206000868152602001908152602001600020549050804361071391906124e4565b8261071e919061248a565b93505050505b92915050565b600080610735611145565b9050610742858285611318565b61074d8585856113a4565b60019150509392505050565b6006600082815260200190815260200160002060009054906101000a900460ff166107b9576040517f08c379a00000000000000000000000000000000000000000000000000000000081526004016107b0906120a1565b60405180910390fd5b3373ffffffffffffffffffffffffffffffffffffffff166007600083815260200190815260200160002060009054906101000a900473ffffffffffffffffffffffffffffffffffffffff1673ffffffffffffffffffffffffffffffffffffffff161461085a576040517f08c379a000000000000000000000000000000000000000000000000000000000815260040161085190612021565b60405180910390fd5b6108643382610a34565b600860009054906101000a900473ffffffffffffffffffffffffffffffffffffffff1673ffffffffffffffffffffffffffffffffffffffff166323b872dd3033846040518463ffffffff1660e01b81526004016108c393929190611f64565b600060405180830381600087803b1580156108dd57600080fd5b505af11580156108f1573d6000803e3d6000fd5b5050505060006006600083815260200190815260200160002060006101000a81548160ff02191690831515021790555050565b60006012905090565b60006006600083815260200190815260200160002060009054906101000a900460ff169050919050565b600080610962611145565b9050610983818585610974858961108b565b61097e9190612292565b61114d565b600191505092915050565b61099f610999611145565b82611625565b50565b600860009054906101000a900473ffffffffffffffffffffffffffffffffffffffff1673ffffffffffffffffffffffffffffffffffffffff1663095ea7b330836040518363ffffffff1660e01b81526004016109ff929190611f9b565b600060405180830381600087803b158015610a1957600080fd5b505af1158015610a2d573d6000803e3d6000fd5b5050505050565b6000610a40838361058b565b905043600560008573ffffffffffffffffffffffffffffffffffffffff1673ffffffffffffffffffffffffffffffffffffffff168152602001908152602001600020600084815260200190815260200160002081905550610aa133826117fc565b505050565b60008060008373ffffffffffffffffffffffffffffffffffffffff1673ffffffffffffffffffffffffffffffffffffffff168152602001908152602001600020549050919050565b610b0082610afa611145565b83611318565b610b0a8282611625565b5050565b606060048054610b1d906125c4565b80601f0160208091040260200160405190810160405280929190818152602001828054610b49906125c4565b8015610b965780601f10610b6b57610100808354040283529160200191610b96565b820191906000526020600020905b815481529060010190602001808311610b7957829003601f168201915b5050505050905090565b600080610bab611145565b90506000610bb9828661108b565b905083811015610bfe576040517f08c379a0000000000000000000000000000000000000000000000000000000008152600401610bf590612181565b60405180910390fd5b610c0b828686840361114d565b60019250505092915050565b600080610c22611145565b9050610c2f8185856113a4565b600191505092915050565b60066020528060005260406000206000915054906101000a900460ff1681565b600860009054906101000a900473ffffffffffffffffffffffffffffffffffffffff1673ffffffffffffffffffffffffffffffffffffffff16636352211e826040518263ffffffff1660e01b8152600401610cb591906121c1565b60206040518083038186803b158015610ccd57600080fd5b505afa158015610ce1573d6000803e3d6000fd5b505050506040513d601f19601f82011682018060405250810190610d059190611b81565b73ffffffffffffffffffffffffffffffffffffffff163373ffffffffffffffffffffffffffffffffffffffff1614610d72576040517f08c379a0000000000000000000000000000000000000000000000000000000008152600401610d69906120c1565b60405180910390fd5b6006600082815260200190815260200160002060009054906101000a900460ff1615610dd3576040517f08c379a0000000000000000000000000000000000000000000000000000000008152600401610dca90612101565b60405180910390fd5b43600560003373ffffffffffffffffffffffffffffffffffffffff1673ffffffffffffffffffffffffffffffffffffffff168152602001908152602001600020600083815260200190815260200160002081905550336007600083815260200190815260200160002060006101000a81548173ffffffffffffffffffffffffffffffffffffffff021916908373ffffffffffffffffffffffffffffffffffffffff16021790555060016006600083815260200190815260200160002060006101000a81548160ff021916908315150217905550600860009054906101000a900473ffffffffffffffffffffffffffffffffffffffff1673ffffffffffffffffffffffffffffffffffffffff166323b872dd3330846040518463ffffffff1660e01b8152600401610f0593929190611f64565b600060405180830381600087803b158015610f1f57600080fd5b505af1158015610f33573d6000803e3d6000fd5b505050506000600860009054906101000a900473ffffffffffffffffffffffffffffffffffffffff1673ffffffffffffffffffffffffffffffffffffffff16639507d39a836040518263ffffffff1660e01b8152600401610f9491906121c1565b60006040518083038186803b158015610fac57600080fd5b505afa158015610fc0573d6000803e3d6000fd5b505050506040513d6000823e3d601f19601f82011682018060405250810190610fe99190611c71565b61010001519050801561108757600860009054906101000a900473ffffffffffffffffffffffffffffffffffffffff1673ffffffffffffffffffffffffffffffffffffffff1663d7a1aed28360006040518363ffffffff1660e01b81526004016110549291906121dc565b600060405180830381600087803b15801561106e57600080fd5b505af1158015611082573d6000803e3d6000fd5b505050505b5050565b6000600160008473ffffffffffffffffffffffffffffffffffffffff1673ffffffffffffffffffffffffffffffffffffffff16815260200190815260200160002060008373ffffffffffffffffffffffffffffffffffffffff1673ffffffffffffffffffffffffffffffffffffffff16815260200190815260200160002054905092915050565b60076020528060005260406000206000915054906101000a900473ffffffffffffffffffffffffffffffffffffffff1681565b600033905090565b600073ffffffffffffffffffffffffffffffffffffffff168373ffffffffffffffffffffffffffffffffffffffff1614156111bd576040517f08c379a00000000000000000000000000000000000000000000000000000000081526004016111b490612161565b60405180910390fd5b600073ffffffffffffffffffffffffffffffffffffffff168273ffffffffffffffffffffffffffffffffffffffff16141561122d576040517f08c379a000000000000000000000000000000000000000000000000000000000815260040161122490612061565b60405180910390fd5b80600160008573ffffffffffffffffffffffffffffffffffffffff1673ffffffffffffffffffffffffffffffffffffffff16815260200190815260200160002060008473ffffffffffffffffffffffffffffffffffffffff1673ffffffffffffffffffffffffffffffffffffffff168152602001908152602001600020819055508173ffffffffffffffffffffffffffffffffffffffff168373ffffffffffffffffffffffffffffffffffffffff167f8c5be1e5ebec7d5bd14f71427d1e84f3dd0314c0f7b2291e5b200ac8c7c3b9258360405161130b91906121c1565b60405180910390a3505050565b6000611324848461108b565b90507fffffffffffffffffffffffffffffffffffffffffffffffffffffffffffffffff811461139e5781811015611390576040517f08c379a000000000000000000000000000000000000000000000000000000000815260040161138790612081565b60405180910390fd5b61139d848484840361114d565b5b50505050565b600073ffffffffffffffffffffffffffffffffffffffff168373ffffffffffffffffffffffffffffffffffffffff161415611414576040517f08c379a000000000000000000000000000000000000000000000000000000000815260040161140b90612141565b60405180910390fd5b600073ffffffffffffffffffffffffffffffffffffffff168273ffffffffffffffffffffffffffffffffffffffff161415611484576040517f08c379a000000000000000000000000000000000000000000000000000000000815260040161147b90612001565b60405180910390fd5b61148f83838361195c565b60008060008573ffffffffffffffffffffffffffffffffffffffff1673ffffffffffffffffffffffffffffffffffffffff16815260200190815260200160002054905081811015611515576040517f08c379a000000000000000000000000000000000000000000000000000000000815260040161150c906120e1565b60405180910390fd5b8181036000808673ffffffffffffffffffffffffffffffffffffffff1673ffffffffffffffffffffffffffffffffffffffff16815260200190815260200160002081905550816000808573ffffffffffffffffffffffffffffffffffffffff1673ffffffffffffffffffffffffffffffffffffffff16815260200190815260200160002060008282546115a89190612292565b925050819055508273ffffffffffffffffffffffffffffffffffffffff168473ffffffffffffffffffffffffffffffffffffffff167fddf252ad1be2c89b69c2b068fc378daa952ba7f163c4a11628f55a4df523b3ef8460405161160c91906121c1565b60405180910390a361161f848484611961565b50505050565b600073ffffffffffffffffffffffffffffffffffffffff168273ffffffffffffffffffffffffffffffffffffffff161415611695576040517f08c379a000000000000000000000000000000000000000000000000000000000815260040161168c90612121565b60405180910390fd5b6116a18260008361195c565b60008060008473ffffffffffffffffffffffffffffffffffffffff1673ffffffffffffffffffffffffffffffffffffffff16815260200190815260200160002054905081811015611727576040517f08c379a000000000000000000000000000000000000000000000000000000000815260040161171e90612041565b60405180910390fd5b8181036000808573ffffffffffffffffffffffffffffffffffffffff1673ffffffffffffffffffffffffffffffffffffffff16815260200190815260200160002081905550816002600082825461177e91906124e4565b92505081905550600073ffffffffffffffffffffffffffffffffffffffff168373ffffffffffffffffffffffffffffffffffffffff167fddf252ad1be2c89b69c2b068fc378daa952ba7f163c4a11628f55a4df523b3ef846040516117e391906121c1565b60405180910390a36117f783600084611961565b505050565b600073ffffffffffffffffffffffffffffffffffffffff168273ffffffffffffffffffffffffffffffffffffffff16141561186c576040517f08c379a0000000000000000000000000000000000000000000000000000000008152600401611863906121a1565b60405180910390fd5b6118786000838361195c565b806002600082825461188a9190612292565b92505081905550806000808473ffffffffffffffffffffffffffffffffffffffff1673ffffffffffffffffffffffffffffffffffffffff16815260200190815260200160002060008282546118df9190612292565b925050819055508173ffffffffffffffffffffffffffffffffffffffff16600073ffffffffffffffffffffffffffffffffffffffff167fddf252ad1be2c89b69c2b068fc378daa952ba7f163c4a11628f55a4df523b3ef8360405161194491906121c1565b60405180910390a361195860008383611961565b5050565b505050565b505050565b600061197961197484612245565b612220565b90508281526020810184848401111561199157600080fd5b61199c848285612591565b509392505050565b6000813590506119b381612a6f565b92915050565b6000815190506119c881612a6f565b92915050565b6000815190506119dd81612a86565b92915050565b6000815190506119f281612a9d565b92915050565b600082601f830112611a0957600080fd5b8151611a19848260208601611966565b91505092915050565b60006101208284031215611a3557600080fd5b611a40610120612220565b90506000611a5084828501611b43565b600083015250602082015167ffffffffffffffff811115611a7057600080fd5b611a7c848285016119f8565b6020830152506040611a90848285016119ce565b6040830152506060611aa4848285016119ce565b6060830152506080611ab884828501611b43565b60808301525060a0611acc84828501611b43565b60a08301525060c082015167ffffffffffffffff811115611aec57600080fd5b611af8848285016119f8565b60c08301525060e0611b0c84828501611b43565b60e083015250610100611b21848285016119e3565b6101008301525092915050565b600081359050611b3d81612ab4565b92915050565b600081519050611b5281612ab4565b92915050565b600060208284031215611b6a57600080fd5b6000611b78848285016119a4565b91505092915050565b600060208284031215611b9357600080fd5b6000611ba1848285016119b9565b91505092915050565b60008060408385031215611bbd57600080fd5b6000611bcb858286016119a4565b9250506020611bdc858286016119a4565b9150509250929050565b600080600060608486031215611bfb57600080fd5b6000611c09868287016119a4565b9350506020611c1a868287016119a4565b9250506040611c2b86828701611b2e565b9150509250925092565b60008060408385031215611c4857600080fd5b6000611c56858286016119a4565b9250506020611c6785828601611b2e565b9150509250929050565b600060208284031215611c8357600080fd5b600082015167ffffffffffffffff811115611c9d57600080fd5b611ca984828501611a22565b91505092915050565b600060208284031215611cc457600080fd5b6000611cd284828501611b2e565b91505092915050565b611ce481612518565b82525050565b611cf38161253c565b82525050565b611d028161257f565b82525050565b6000611d1382612276565b611d1d8185612281565b9350611d2d818560208601612591565b611d36816126e3565b840191505092915050565b6000611d4e602383612281565b9150611d5982612701565b604082019050919050565b6000611d71600f83612281565b9150611d7c82612750565b602082019050919050565b6000611d94602283612281565b9150611d9f82612779565b604082019050919050565b6000611db7602283612281565b9150611dc2826127c8565b604082019050919050565b6000611dda601d83612281565b9150611de582612817565b602082019050919050565b6000611dfd601583612281565b9150611e0882612840565b602082019050919050565b6000611e20601483612281565b9150611e2b82612869565b602082019050919050565b6000611e43602683612281565b9150611e4e82612892565b604082019050919050565b6000611e66601883612281565b9150611e71826128e1565b602082019050919050565b6000611e89602183612281565b9150611e948261290a565b604082019050919050565b6000611eac602583612281565b9150611eb782612959565b604082019050919050565b6000611ecf602483612281565b9150611eda826129a8565b604082019050919050565b6000611ef2602583612281565b9150611efd826129f7565b604082019050919050565b6000611f15601f83612281565b9150611f2082612a46565b602082019050919050565b611f3481612568565b82525050565b611f4381612572565b82525050565b6000602082019050611f5e6000830184611cdb565b92915050565b6000606082019050611f796000830186611cdb565b611f866020830185611cdb565b611f936040830184611f2b565b949350505050565b6000604082019050611fb06000830185611cdb565b611fbd6020830184611f2b565b9392505050565b6000602082019050611fd96000830184611cea565b92915050565b60006020820190508181036000830152611ff98184611d08565b905092915050565b6000602082019050818103600083015261201a81611d41565b9050919050565b6000602082019050818103600083015261203a81611d64565b9050919050565b6000602082019050818103600083015261205a81611d87565b9050919050565b6000602082019050818103600083015261207a81611daa565b9050919050565b6000602082019050818103600083015261209a81611dcd565b9050919050565b600060208201905081810360008301526120ba81611df0565b9050919050565b600060208201905081810360008301526120da81611e13565b9050919050565b600060208201905081810360008301526120fa81611e36565b9050919050565b6000602082019050818103600083015261211a81611e59565b9050919050565b6000602082019050818103600083015261213a81611e7c565b9050919050565b6000602082019050818103600083015261215a81611e9f565b9050919050565b6000602082019050818103600083015261217a81611ec2565b9050919050565b6000602082019050818103600083015261219a81611ee5565b9050919050565b600060208201905081810360008301526121ba81611f08565b9050919050565b60006020820190506121d66000830184611f2b565b92915050565b60006040820190506121f16000830185611f2b565b6121fe6020830184611cf9565b9392505050565b600060208201905061221a6000830184611f3a565b92915050565b600061222a61223b565b905061223682826125f6565b919050565b6000604051905090565b600067ffffffffffffffff8211156122605761225f6126b4565b5b612269826126e3565b9050602081019050919050565b600081519050919050565b600082825260208201905092915050565b600061229d82612568565b91506122a883612568565b9250827fffffffffffffffffffffffffffffffffffffffffffffffffffffffffffffffff038211156122dd576122dc612627565b5b828201905092915050565b60006122f382612568565b91506122fe83612568565b92508261230e5761230d612656565b5b828204905092915050565b6000808291508390505b60018511156123635780860481111561233f5761233e612627565b5b600185161561234e5780820291505b808102905061235c856126f4565b9450612323565b94509492505050565b600061237782612568565b915061238283612568565b92506123af7fffffffffffffffffffffffffffffffffffffffffffffffffffffffffffffffff84846123b7565b905092915050565b6000826123c75760019050612483565b816123d55760009050612483565b81600181146123eb57600281146123f557612424565b6001915050612483565b60ff84111561240757612406612627565b5b8360020a91508482111561241e5761241d612627565b5b50612483565b5060208310610133831016604e8410600b84101617156124595782820a90508381111561245457612453612627565b5b612483565b6124668484846001612319565b9250905081840481111561247d5761247c612627565b5b81810290505b9392505050565b600061249582612568565b91506124a083612568565b9250817fffffffffffffffffffffffffffffffffffffffffffffffffffffffffffffffff04831182151516156124d9576124d8612627565b5b828202905092915050565b60006124ef82612568565b91506124fa83612568565b92508282101561250d5761250c612627565b5b828203905092915050565b600061252382612548565b9050919050565b600061253582612548565b9050919050565b60008115159050919050565b600073ffffffffffffffffffffffffffffffffffffffff82169050919050565b6000819050919050565b600060ff82169050919050565b600061258a82612568565b9050919050565b60005b838110156125af578082015181840152602081019050612594565b838111156125be576000848401525b50505050565b600060028204905060018216806125dc57607f821691505b602082108114156125f0576125ef612685565b5b50919050565b6125ff826126e3565b810181811067ffffffffffffffff8211171561261e5761261d6126b4565b5b80604052505050565b7f4e487b7100000000000000000000000000000000000000000000000000000000600052601160045260246000fd5b7f4e487b7100000000000000000000000000000000000000000000000000000000600052601260045260246000fd5b7f4e487b7100000000000000000000000000000000000000000000000000000000600052602260045260246000fd5b7f4e487b7100000000000000000000000000000000000000000000000000000000600052604160045260246000fd5b6000601f19601f8301169050919050565b60008160011c9050919050565b7f45524332303a207472616e7366657220746f20746865207a65726f206164647260008201527f6573730000000000000000000000000000000000000000000000000000000000602082015250565b7f4f6e6c7920746865205374616b65720000000000000000000000000000000000600082015250565b7f45524332303a206275726e20616d6f756e7420657863656564732062616c616e60008201527f6365000000000000000000000000000000000000000000000000000000000000602082015250565b7f45524332303a20617070726f766520746f20746865207a65726f20616464726560008201527f7373000000000000000000000000000000000000000000000000000000000000602082015250565b7f45524332303a20696e73756666696369656e7420616c6c6f77616e6365000000600082015250565b7f4e6f20746f6b656e7320746f2077697468646172770000000000000000000000600082015250565b7f53656e646572206d757374206265206f776e6572000000000000000000000000600082015250565b7f45524332303a207472616e7366657220616d6f756e742065786365656473206260008201527f616c616e63650000000000000000000000000000000000000000000000000000602082015250565b7f53656e64657220616c7265616479206465706f73697465640000000000000000600082015250565b7f45524332303a206275726e2066726f6d20746865207a65726f2061646472657360008201527f7300000000000000000000000000000000000000000000000000000000000000602082015250565b7f45524332303a207472616e736665722066726f6d20746865207a65726f20616460008201527f6472657373000000000000000000000000000000000000000000000000000000602082015250565b7f45524332303a20617070726f76652066726f6d20746865207a65726f2061646460008201527f7265737300000000000000000000000000000000000000000000000000000000602082015250565b7f45524332303a2064656372656173656420616c6c6f77616e63652062656c6f7760008201527f207a65726f000000000000000000000000000000000000000000000000000000602082015250565b7f45524332303a206d696e7420746f20746865207a65726f206164647265737300600082015250565b612a7881612518565b8114612a8357600080fd5b50565b612a8f8161252a565b8114612a9a57600080fd5b50565b612aa68161253c565b8114612ab157600080fd5b50565b612abd81612568565b8114612ac857600080fd5b5056fea2646970667358221220b618d31e0840fc066f407fdb2b73e0f546bf1c46ee212dc7ec0bc50d9772db0b64736f6c63430008030033",
  "immutableReferences": {},
  "source": "// SPDX-License-Identifier: MIT\npragma solidity ^0.8.0;\n\nimport '@openzeppelin/contracts/token/ERC20/extensions/ERC20Burnable.sol';\nimport \"@openzeppelin/contracts/token/ERC721/ERC721.sol\";\nimport \"@openzeppelin/contracts/utils/math/SafeMath.sol\";\nimport \"./Hashimon.sol\";\nimport \"./ERC721Hashima.sol\";\n\ncontract Hashi is ERC20Burnable{\n    using SafeMath for uint256;\n    mapping(address => mapping(uint256=>uint256)) public checkpoints;\n    mapping(uint256 => bool) public has_deposited;\n    mapping(uint256 => address) public staking_accounts;\n\n    Hashimon private hashimaContract;\n\n    constructor(Hashimon _contrato) ERC20(\"Hashi\", \"HASHI\"){\n        hashimaContract = Hashimon(_contrato);\n\n    }\n\n    function aprovar(uint256 tokenId)external{\n        hashimaContract.approve(address(this), tokenId);\n    }\n\n    function deposit(uint256 tokenId) external{\n        require (msg.sender == hashimaContract.ownerOf(tokenId), 'Sender must be owner');\n        require (!has_deposited[tokenId], 'Sender already deposited');\n        \n        //La altura del bloque de partida\n        checkpoints[msg.sender][tokenId] = block.number;\n        staking_accounts[tokenId]=msg.sender;\n        has_deposited[tokenId]=true;\n        \n        hashimaContract.transferFrom(msg.sender, address(this), tokenId);\n        bool forSale=hashimaContract.get(tokenId).forSale;\n        \n        if(forSale){\n            hashimaContract.toggleForSale(tokenId,0);\n        }\n        \n   }\n\n    function withdraw(uint256 tokenId) external{\n        require(has_deposited[tokenId], 'No tokens to withdarw');\n        require(staking_accounts[tokenId]==msg.sender,'Only the Staker');\n        collect(msg.sender,tokenId);\n        hashimaContract.transferFrom(address(this), msg.sender, tokenId);\n        \n        has_deposited[tokenId]=false;\n    }\n\n    function collect(address beneficiary,uint256 tokenId) public{\n        uint256 reward = calculateReward(beneficiary,tokenId);\n        checkpoints[beneficiary][tokenId] = block.number;      \n        _mint(msg.sender, reward);\n    }\n\n    function hashimaOnStaking(uint256 tokenId)public view returns(bool){\n        return has_deposited[tokenId];\n    }\n\n    function calculateReward(address beneficiary,uint256 tokenId) public view returns(uint256){\n        if(!has_deposited[tokenId])\n        {\n            return 0;\n        }\n        uint256 _stars=hashimaContract.get(tokenId).stars;\n        uint256 pesoEstrella=_stars*_stars*1000**_stars/64-_stars;\n        uint256 checkpoint = checkpoints[beneficiary][tokenId];\n        return pesoEstrella*(block.number-checkpoint);\n    }\n}",
  "sourcePath": "/Users/aarontolentino/Documents/A-Hashimas/A-Hashimon/contracts/Hashi.sol",
  "compiler": {
    "name": "solc",
    "version": "0.8.3+commit.8d00100c.Emscripten.clang"
  },
  "schemaVersion": "3.4.1",
  "updatedAt": "2022-12-18T08:07:42.198Z",
  "devdoc": {
    "kind": "dev",
    "methods": {
      "allowance(address,address)": {
        "details": "See {IERC20-allowance}."
      },
      "approve(address,uint256)": {
        "details": "See {IERC20-approve}. NOTE: If `amount` is the maximum `uint256`, the allowance is not updated on `transferFrom`. This is semantically equivalent to an infinite approval. Requirements: - `spender` cannot be the zero address."
      },
      "balanceOf(address)": {
        "details": "See {IERC20-balanceOf}."
      },
      "burn(uint256)": {
        "details": "Destroys `amount` tokens from the caller. See {ERC20-_burn}."
      },
      "burnFrom(address,uint256)": {
        "details": "Destroys `amount` tokens from `account`, deducting from the caller's allowance. See {ERC20-_burn} and {ERC20-allowance}. Requirements: - the caller must have allowance for ``accounts``'s tokens of at least `amount`."
      },
      "decimals()": {
        "details": "Returns the number of decimals used to get its user representation. For example, if `decimals` equals `2`, a balance of `505` tokens should be displayed to a user as `5.05` (`505 / 10 ** 2`). Tokens usually opt for a value of 18, imitating the relationship between Ether and Wei. This is the value {ERC20} uses, unless this function is overridden; NOTE: This information is only used for _display_ purposes: it in no way affects any of the arithmetic of the contract, including {IERC20-balanceOf} and {IERC20-transfer}."
      },
      "decreaseAllowance(address,uint256)": {
        "details": "Atomically decreases the allowance granted to `spender` by the caller. This is an alternative to {approve} that can be used as a mitigation for problems described in {IERC20-approve}. Emits an {Approval} event indicating the updated allowance. Requirements: - `spender` cannot be the zero address. - `spender` must have allowance for the caller of at least `subtractedValue`."
      },
      "increaseAllowance(address,uint256)": {
        "details": "Atomically increases the allowance granted to `spender` by the caller. This is an alternative to {approve} that can be used as a mitigation for problems described in {IERC20-approve}. Emits an {Approval} event indicating the updated allowance. Requirements: - `spender` cannot be the zero address."
      },
      "name()": {
        "details": "Returns the name of the token."
      },
      "symbol()": {
        "details": "Returns the symbol of the token, usually a shorter version of the name."
      },
      "totalSupply()": {
        "details": "See {IERC20-totalSupply}."
      },
      "transfer(address,uint256)": {
        "details": "See {IERC20-transfer}. Requirements: - `to` cannot be the zero address. - the caller must have a balance of at least `amount`."
      },
      "transferFrom(address,address,uint256)": {
        "details": "See {IERC20-transferFrom}. Emits an {Approval} event indicating the updated allowance. This is not required by the EIP. See the note at the beginning of {ERC20}. NOTE: Does not update the allowance if the current allowance is the maximum `uint256`. Requirements: - `from` and `to` cannot be the zero address. - `from` must have a balance of at least `amount`. - the caller must have allowance for ``from``'s tokens of at least `amount`."
      }
    },
    "version": 1
  },
  "userdoc": {
    "kind": "user",
    "methods": {},
    "version": 1
  }
}