{
  "contractName": "Hashimon",
  "abi": [
    {
      "inputs": [],
      "stateMutability": "nonpayable",
      "type": "constructor"
    },
    {
      "anonymous": false,
      "inputs": [
        {
          "indexed": true,
          "internalType": "address",
          "name": "owner",
          "type": "address"
        },
        {
          "indexed": true,
          "internalType": "address",
          "name": "approved",
          "type": "address"
        },
        {
          "indexed": true,
          "internalType": "uint256",
          "name": "tokenId",
          "type": "uint256"
        }
      ],
      "name": "Approval",
      "type": "event"
    },
    {
      "anonymous": false,
      "inputs": [
        {
          "indexed": true,
          "internalType": "address",
          "name": "owner",
          "type": "address"
        },
        {
          "indexed": true,
          "internalType": "address",
          "name": "operator",
          "type": "address"
        },
        {
          "indexed": false,
          "internalType": "bool",
          "name": "approved",
          "type": "bool"
        }
      ],
      "name": "ApprovalForAll",
      "type": "event"
    },
    {
      "anonymous": false,
      "inputs": [
        {
          "indexed": false,
          "internalType": "uint256",
          "name": "_blocknumber",
          "type": "uint256"
        }
      ],
      "name": "GameStart",
      "type": "event"
    },
    {
      "anonymous": false,
      "inputs": [
        {
          "indexed": false,
          "internalType": "bool",
          "name": "respuesta",
          "type": "bool"
        },
        {
          "indexed": false,
          "internalType": "bytes32",
          "name": "hashResultado",
          "type": "bytes32"
        },
        {
          "indexed": false,
          "internalType": "uint256",
          "name": "id",
          "type": "uint256"
        }
      ],
      "name": "Minted",
      "type": "event"
    },
    {
      "anonymous": false,
      "inputs": [
        {
          "indexed": true,
          "internalType": "address",
          "name": "from",
          "type": "address"
        },
        {
          "indexed": true,
          "internalType": "address",
          "name": "to",
          "type": "address"
        },
        {
          "indexed": true,
          "internalType": "uint256",
          "name": "tokenId",
          "type": "uint256"
        }
      ],
      "name": "Transfer",
      "type": "event"
    },
    {
      "inputs": [],
      "name": "BLOCK_TOLERANCE",
      "outputs": [
        {
          "internalType": "uint256",
          "name": "",
          "type": "uint256"
        }
      ],
      "stateMutability": "view",
      "type": "function",
      "constant": true
    },
    {
      "inputs": [],
      "name": "Init",
      "outputs": [
        {
          "internalType": "uint256",
          "name": "",
          "type": "uint256"
        }
      ],
      "stateMutability": "nonpayable",
      "type": "function"
    },
    {
      "inputs": [
        {
          "internalType": "string",
          "name": "",
          "type": "string"
        }
      ],
      "name": "_names",
      "outputs": [
        {
          "internalType": "bool",
          "name": "",
          "type": "bool"
        }
      ],
      "stateMutability": "view",
      "type": "function",
      "constant": true
    },
    {
      "inputs": [
        {
          "internalType": "address",
          "name": "to",
          "type": "address"
        },
        {
          "internalType": "uint256",
          "name": "tokenId",
          "type": "uint256"
        }
      ],
      "name": "approve",
      "outputs": [],
      "stateMutability": "nonpayable",
      "type": "function"
    },
    {
      "inputs": [
        {
          "internalType": "address",
          "name": "owner",
          "type": "address"
        }
      ],
      "name": "balanceOf",
      "outputs": [
        {
          "internalType": "uint256",
          "name": "",
          "type": "uint256"
        }
      ],
      "stateMutability": "view",
      "type": "function",
      "constant": true
    },
    {
      "inputs": [
        {
          "internalType": "uint256",
          "name": "_tokenId",
          "type": "uint256"
        }
      ],
      "name": "buyToken",
      "outputs": [
        {
          "internalType": "bool",
          "name": "",
          "type": "bool"
        }
      ],
      "stateMutability": "payable",
      "type": "function",
      "payable": true
    },
    {
      "inputs": [
        {
          "internalType": "bytes32",
          "name": "_bytes32",
          "type": "bytes32"
        }
      ],
      "name": "bytes32ToString",
      "outputs": [
        {
          "internalType": "string",
          "name": "",
          "type": "string"
        }
      ],
      "stateMutability": "pure",
      "type": "function",
      "constant": true
    },
    {
      "inputs": [
        {
          "internalType": "uint256",
          "name": "_tokenId",
          "type": "uint256"
        },
        {
          "internalType": "uint256",
          "name": "_newPrice",
          "type": "uint256"
        }
      ],
      "name": "changePrice",
      "outputs": [],
      "stateMutability": "nonpayable",
      "type": "function"
    },
    {
      "inputs": [],
      "name": "checkTolerance",
      "outputs": [
        {
          "internalType": "uint256",
          "name": "",
          "type": "uint256"
        }
      ],
      "stateMutability": "view",
      "type": "function",
      "constant": true
    },
    {
      "inputs": [
        {
          "internalType": "uint256",
          "name": "_index",
          "type": "uint256"
        }
      ],
      "name": "get",
      "outputs": [
        {
          "components": [
            {
              "internalType": "uint256",
              "name": "tokenId",
              "type": "uint256"
            },
            {
              "internalType": "string",
              "name": "data",
              "type": "string"
            },
            {
              "internalType": "address payable",
              "name": "currentOwner",
              "type": "address"
            },
            {
              "internalType": "address payable",
              "name": "previousOwner",
              "type": "address"
            },
            {
              "internalType": "uint256",
              "name": "stars",
              "type": "uint256"
            },
            {
              "internalType": "uint256",
              "name": "blockTolerance",
              "type": "uint256"
            },
            {
              "internalType": "string",
              "name": "nonce",
              "type": "string"
            },
            {
              "internalType": "uint256",
              "name": "price",
              "type": "uint256"
            },
            {
              "internalType": "bool",
              "name": "forSale",
              "type": "bool"
            }
          ],
          "internalType": "struct IHashima.Hashi",
          "name": "",
          "type": "tuple"
        }
      ],
      "stateMutability": "view",
      "type": "function",
      "constant": true
    },
    {
      "inputs": [
        {
          "internalType": "uint256",
          "name": "tokenId",
          "type": "uint256"
        }
      ],
      "name": "getApproved",
      "outputs": [
        {
          "internalType": "address",
          "name": "",
          "type": "address"
        }
      ],
      "stateMutability": "view",
      "type": "function",
      "constant": true
    },
    {
      "inputs": [],
      "name": "getTotal",
      "outputs": [
        {
          "internalType": "uint256",
          "name": "",
          "type": "uint256"
        }
      ],
      "stateMutability": "view",
      "type": "function",
      "constant": true
    },
    {
      "inputs": [
        {
          "internalType": "address",
          "name": "owner",
          "type": "address"
        },
        {
          "internalType": "address",
          "name": "operator",
          "type": "address"
        }
      ],
      "name": "isApprovedForAll",
      "outputs": [
        {
          "internalType": "bool",
          "name": "",
          "type": "bool"
        }
      ],
      "stateMutability": "view",
      "type": "function",
      "constant": true
    },
    {
      "inputs": [],
      "name": "name",
      "outputs": [
        {
          "internalType": "string",
          "name": "",
          "type": "string"
        }
      ],
      "stateMutability": "view",
      "type": "function",
      "constant": true
    },
    {
      "inputs": [
        {
          "internalType": "uint256",
          "name": "tokenId",
          "type": "uint256"
        }
      ],
      "name": "ownerOf",
      "outputs": [
        {
          "internalType": "address",
          "name": "",
          "type": "address"
        }
      ],
      "stateMutability": "view",
      "type": "function",
      "constant": true
    },
    {
      "inputs": [
        {
          "internalType": "address",
          "name": "from",
          "type": "address"
        },
        {
          "internalType": "address",
          "name": "to",
          "type": "address"
        },
        {
          "internalType": "uint256",
          "name": "tokenId",
          "type": "uint256"
        }
      ],
      "name": "safeTransferFrom",
      "outputs": [],
      "stateMutability": "nonpayable",
      "type": "function"
    },
    {
      "inputs": [
        {
          "internalType": "address",
          "name": "from",
          "type": "address"
        },
        {
          "internalType": "address",
          "name": "to",
          "type": "address"
        },
        {
          "internalType": "uint256",
          "name": "tokenId",
          "type": "uint256"
        },
        {
          "internalType": "bytes",
          "name": "data",
          "type": "bytes"
        }
      ],
      "name": "safeTransferFrom",
      "outputs": [],
      "stateMutability": "nonpayable",
      "type": "function"
    },
    {
      "inputs": [
        {
          "internalType": "address",
          "name": "operator",
          "type": "address"
        },
        {
          "internalType": "bool",
          "name": "approved",
          "type": "bool"
        }
      ],
      "name": "setApprovalForAll",
      "outputs": [],
      "stateMutability": "nonpayable",
      "type": "function"
    },
    {
      "inputs": [
        {
          "internalType": "bytes4",
          "name": "interfaceId",
          "type": "bytes4"
        }
      ],
      "name": "supportsInterface",
      "outputs": [
        {
          "internalType": "bool",
          "name": "",
          "type": "bool"
        }
      ],
      "stateMutability": "view",
      "type": "function",
      "constant": true
    },
    {
      "inputs": [],
      "name": "symbol",
      "outputs": [
        {
          "internalType": "string",
          "name": "",
          "type": "string"
        }
      ],
      "stateMutability": "view",
      "type": "function",
      "constant": true
    },
    {
      "inputs": [
        {
          "internalType": "uint256",
          "name": "_tokenId",
          "type": "uint256"
        },
        {
          "internalType": "uint256",
          "name": "_price",
          "type": "uint256"
        }
      ],
      "name": "toggleForSale",
      "outputs": [],
      "stateMutability": "nonpayable",
      "type": "function"
    },
    {
      "inputs": [
        {
          "internalType": "uint256",
          "name": "tokenId",
          "type": "uint256"
        }
      ],
      "name": "tokenURI",
      "outputs": [
        {
          "internalType": "string",
          "name": "",
          "type": "string"
        }
      ],
      "stateMutability": "view",
      "type": "function",
      "constant": true
    },
    {
      "inputs": [
        {
          "internalType": "address",
          "name": "from",
          "type": "address"
        },
        {
          "internalType": "address",
          "name": "to",
          "type": "address"
        },
        {
          "internalType": "uint256",
          "name": "tokenId",
          "type": "uint256"
        }
      ],
      "name": "transferFrom",
      "outputs": [],
      "stateMutability": "nonpayable",
      "type": "function"
    },
    {
      "inputs": [
        {
          "internalType": "uint256",
          "name": "_stars",
          "type": "uint256"
        },
        {
          "internalType": "string",
          "name": "_data",
          "type": "string"
        },
        {
          "internalType": "string",
          "name": "_nonce",
          "type": "string"
        },
        {
          "internalType": "uint256",
          "name": "_price",
          "type": "uint256"
        },
        {
          "internalType": "bool",
          "name": "_forSale",
          "type": "bool"
        },
        {
          "internalType": "address",
          "name": "_receiver",
          "type": "address"
        }
      ],
      "name": "MintFor",
      "outputs": [],
      "stateMutability": "nonpayable",
      "type": "function"
    },
    {
      "inputs": [
        {
          "internalType": "uint256",
          "name": "_stars",
          "type": "uint256"
        },
        {
          "internalType": "string",
          "name": "_data",
          "type": "string"
        },
        {
          "internalType": "string",
          "name": "_nonce",
          "type": "string"
        },
        {
          "internalType": "uint256",
          "name": "_price",
          "type": "uint256"
        },
        {
          "internalType": "bool",
          "name": "_forSale",
          "type": "bool"
        }
      ],
      "name": "Mint",
      "outputs": [],
      "stateMutability": "nonpayable",
      "type": "function"
    }
  ],
  "bytecode": "0x608060405260c86007553480156200001657600080fd5b506040518060400160405280600881526020017f48617368696d6f6e0000000000000000000000000000000000000000000000008152506040518060400160405280600881526020017f48415348494d4f4e00000000000000000000000000000000000000000000000081525081600090805190602001906200009b929190620000bd565b508060019080519060200190620000b4929190620000bd565b505050620001d2565b828054620000cb906200016d565b90600052602060002090601f016020900481019282620000ef57600085556200013b565b82601f106200010a57805160ff19168380011785556200013b565b828001600101855582156200013b579182015b828111156200013a5782518255916020019190600101906200011d565b5b5090506200014a91906200014e565b5090565b5b80821115620001695760008160009055506001016200014f565b5090565b600060028204905060018216806200018657607f821691505b602082108114156200019d576200019c620001a3565b5b50919050565b7f4e487b7100000000000000000000000000000000000000000000000000000000600052602260045260246000fd5b61575e80620001e26000396000f3fe6080604052600436106101665760003560e01c80639201de55116100d1578063c87b56dd1161008a578063d7a1aed211610064578063d7a1aed214610579578063d7b0495a146105a2578063e985e9c5146105cd578063eeaba6371461060a57610166565b8063c87b56dd146104d6578063d1760fac14610513578063d1c51f721461055057610166565b80639201de55146103b65780639507d39a146103f357806395d89b4114610430578063a22cb4651461045b578063b3de019c14610484578063b88d4fde146104ad57610166565b80632d296bf1116101235780632d296bf11461028d57806342842e0e146102bd57806357a86f7d146102e65780636352211e1461031157806370a082311461034e578063775a25e31461038b57610166565b806301ffc9a71461016b57806306fdde03146101a8578063081812fc146101d3578063095ea7b3146102105780630972543b1461023957806323b872dd14610264575b600080fd5b34801561017757600080fd5b50610192600480360381019061018d91906140c6565b610633565b60405161019f91906149fc565b60405180910390f35b3480156101b457600080fd5b506101bd610715565b6040516101ca9190614a4e565b60405180910390f35b3480156101df57600080fd5b506101fa60048036038101906101f59190614159565b6107a7565b6040516102079190614995565b60405180910390f35b34801561021c57600080fd5b5061023760048036038101906102329190614038565b6107ed565b005b34801561024557600080fd5b5061024e610905565b60405161025b9190614d52565b60405180910390f35b34801561027057600080fd5b5061028b60048036038101906102869190613f32565b61094c565b005b6102a760048036038101906102a29190614159565b6109ac565b6040516102b491906149fc565b60405180910390f35b3480156102c957600080fd5b506102e460048036038101906102df9190613f32565b610f41565b005b3480156102f257600080fd5b506102fb610f61565b6040516103089190614d52565b60405180910390f35b34801561031d57600080fd5b5061033860048036038101906103339190614159565b610fe9565b6040516103459190614995565b60405180910390f35b34801561035a57600080fd5b5061037560048036038101906103709190613ecd565b61109b565b6040516103829190614d52565b60405180910390f35b34801561039757600080fd5b506103a0611153565b6040516103ad9190614d52565b60405180910390f35b3480156103c257600080fd5b506103dd60048036038101906103d89190614074565b611164565b6040516103ea9190614a4e565b60405180910390f35b3480156103ff57600080fd5b5061041a60048036038101906104159190614159565b6113bd565b6040516104279190614d30565b60405180910390f35b34801561043c57600080fd5b506104456115fe565b6040516104529190614a4e565b60405180910390f35b34801561046757600080fd5b50610482600480360381019061047d9190613ffc565b611690565b005b34801561049057600080fd5b506104ab60048036038101906104a691906142e2565b6116a6565b005b3480156104b957600080fd5b506104d460048036038101906104cf9190613f81565b611b20565b005b3480156104e257600080fd5b506104fd60048036038101906104f89190614159565b611b82565b60405161050a9190614a4e565b60405180910390f35b34801561051f57600080fd5b5061053a60048036038101906105359190614118565b611c95565b60405161054791906149fc565b60405180910390f35b34801561055c57600080fd5b5061057760048036038101906105729190614182565b611ccb565b005b34801561058557600080fd5b506105a0600480360381019061059b91906142e2565b611fba565b005b3480156105ae57600080fd5b506105b7612430565b6040516105c49190614d52565b60405180910390f35b3480156105d957600080fd5b506105f460048036038101906105ef9190613ef6565b612436565b60405161060191906149fc565b60405180910390f35b34801561061657600080fd5b50610631600480360381019061062c9190614229565b6124ca565b005b60007f80ac58cd000000000000000000000000000000000000000000000000000000007bffffffffffffffffffffffffffffffffffffffffffffffffffffffff1916827bffffffffffffffffffffffffffffffffffffffffffffffffffffffff191614806106fe57507f5b5e139f000000000000000000000000000000000000000000000000000000007bffffffffffffffffffffffffffffffffffffffffffffffffffffffff1916827bffffffffffffffffffffffffffffffffffffffffffffffffffffffff1916145b8061070e575061070d826127ba565b5b9050919050565b60606000805461072490614fed565b80601f016020809104026020016040519081016040528092919081815260200182805461075090614fed565b801561079d5780601f106107725761010080835404028352916020019161079d565b820191906000526020600020905b81548152906001019060200180831161078057829003601f168201915b5050505050905090565b60006107b282612824565b6004600083815260200190815260200160002060009054906101000a900473ffffffffffffffffffffffffffffffffffffffff169050919050565b60006107f882610fe9565b90508073ffffffffffffffffffffffffffffffffffffffff168373ffffffffffffffffffffffffffffffffffffffff161415610869576040517f08c379a000000000000000000000000000000000000000000000000000000000815260040161086090614c90565b60405180910390fd5b8073ffffffffffffffffffffffffffffffffffffffff1661088861286f565b73ffffffffffffffffffffffffffffffffffffffff1614806108b757506108b6816108b161286f565b612436565b5b6108f6576040517f08c379a00000000000000000000000000000000000000000000000000000000081526004016108ed90614c10565b60405180910390fd5b6109008383612877565b505050565b6000600860003373ffffffffffffffffffffffffffffffffffffffff1673ffffffffffffffffffffffffffffffffffffffff16815260200190815260200160002054905090565b61095d61095761286f565b82612930565b61099c576040517f08c379a000000000000000000000000000000000000000000000000000000000815260040161099390614cf0565b60405180910390fd5b6109a78383836129c5565b505050565b60008073ffffffffffffffffffffffffffffffffffffffff163373ffffffffffffffffffffffffffffffffffffffff1614156109e757600080fd5b6109f082612c2c565b6109f957600080fd5b6000610a0483610fe9565b9050600073ffffffffffffffffffffffffffffffffffffffff168173ffffffffffffffffffffffffffffffffffffffff161415610a4057600080fd5b3373ffffffffffffffffffffffffffffffffffffffff168173ffffffffffffffffffffffffffffffffffffffff161415610a7957600080fd5b6000600a60008581526020019081526020016000206040518061012001604052908160008201548152602001600182018054610ab490614fed565b80601f0160208091040260200160405190810160405280929190818152602001828054610ae090614fed565b8015610b2d5780601f10610b0257610100808354040283529160200191610b2d565b820191906000526020600020905b815481529060010190602001808311610b1057829003601f168201915b505050505081526020016002820160009054906101000a900473ffffffffffffffffffffffffffffffffffffffff1673ffffffffffffffffffffffffffffffffffffffff1673ffffffffffffffffffffffffffffffffffffffff1681526020016003820160009054906101000a900473ffffffffffffffffffffffffffffffffffffffff1673ffffffffffffffffffffffffffffffffffffffff1673ffffffffffffffffffffffffffffffffffffffff1681526020016004820154815260200160058201548152602001600682018054610c0690614fed565b80601f0160208091040260200160405190810160405280929190818152602001828054610c3290614fed565b8015610c7f5780601f10610c5457610100808354040283529160200191610c7f565b820191906000526020600020905b815481529060010190602001808311610c6257829003601f168201915b50505050508152602001600782015481526020016008820160009054906101000a900460ff16151515158152505090508060e00151341015610cf6576040517f08c379a0000000000000000000000000000000000000000000000000000000008152600401610ced90614c50565b60405180910390fd5b806101000151610d3b576040517f08c379a0000000000000000000000000000000000000000000000000000000008152600401610d3290614bf0565b60405180910390fd5b60008160400151905060008173ffffffffffffffffffffffffffffffffffffffff1634604051610d6a90614980565b60006040518083038185875af1925050503d8060008114610da7576040519150601f19603f3d011682016040523d82523d6000602084013e610dac565b606091505b5050905080610df0576040517f08c379a0000000000000000000000000000000000000000000000000000000008152600401610de790614d10565b60405180910390fd5b60008361010001901515908115158152505082600a6000888152602001908152602001600020600082015181600001556020820151816001019080519060200190610e3c929190613c4d565b5060408201518160020160006101000a81548173ffffffffffffffffffffffffffffffffffffffff021916908373ffffffffffffffffffffffffffffffffffffffff16021790555060608201518160030160006101000a81548173ffffffffffffffffffffffffffffffffffffffff021916908373ffffffffffffffffffffffffffffffffffffffff1602179055506080820151816004015560a0820151816005015560c0820151816006019080519060200190610efb929190613c4d565b5060e082015181600701556101008201518160080160006101000a81548160ff021916908315150217905550905050610f358433886129c5565b80945050505050919050565b610f5c83838360405180602001604052806000815250611b20565b505050565b60008043905080600860003373ffffffffffffffffffffffffffffffffffffffff1673ffffffffffffffffffffffffffffffffffffffff168152602001908152602001600020819055507fb5e8a4470f7bcac7f2c0f3e23471bd7016a9f6f049884cd27dfa8960f361287b81604051610fda9190614d52565b60405180910390a18091505090565b6000806002600084815260200190815260200160002060009054906101000a900473ffffffffffffffffffffffffffffffffffffffff169050600073ffffffffffffffffffffffffffffffffffffffff168173ffffffffffffffffffffffffffffffffffffffff161415611092576040517f08c379a000000000000000000000000000000000000000000000000000000000815260040161108990614c70565b60405180910390fd5b80915050919050565b60008073ffffffffffffffffffffffffffffffffffffffff168273ffffffffffffffffffffffffffffffffffffffff16141561110c576040517f08c379a000000000000000000000000000000000000000000000000000000000815260040161110390614b90565b60405180910390fd5b600360008373ffffffffffffffffffffffffffffffffffffffff1673ffffffffffffffffffffffffffffffffffffffff168152602001908152602001600020549050919050565b600061115f600b612c98565b905090565b606060005b60208160ff161080156111e15750600060f81b838260ff16602081106111b8577f4e487b7100000000000000000000000000000000000000000000000000000000600052603260045260246000fd5b1a60f81b7effffffffffffffffffffffffffffffffffffffffffffffffffffffffffffff191614155b156111f95780806111f190615099565b915050611169565b60008160ff1667ffffffffffffffff81111561123e577f4e487b7100000000000000000000000000000000000000000000000000000000600052604160045260246000fd5b6040519080825280601f01601f1916602001820160405280156112705781602001600182028036833780820191505090505b509050600091505b60208260ff161080156112f05750600060f81b848360ff16602081106112c7577f4e487b7100000000000000000000000000000000000000000000000000000000600052603260045260246000fd5b1a60f81b7effffffffffffffffffffffffffffffffffffffffffffffffffffffffffffff191614155b156113b357838260ff1660208110611331577f4e487b7100000000000000000000000000000000000000000000000000000000600052603260045260246000fd5b1a60f81b818360ff1681518110611371577f4e487b7100000000000000000000000000000000000000000000000000000000600052603260045260246000fd5b60200101907effffffffffffffffffffffffffffffffffffffffffffffffffffffffffffff1916908160001a90535081806113ab90615099565b925050611278565b8092505050919050565b6113c5613cd3565b600a600083815260200190815260200160002060405180610120016040529081600082015481526020016001820180546113fe90614fed565b80601f016020809104026020016040519081016040528092919081815260200182805461142a90614fed565b80156114775780601f1061144c57610100808354040283529160200191611477565b820191906000526020600020905b81548152906001019060200180831161145a57829003601f168201915b505050505081526020016002820160009054906101000a900473ffffffffffffffffffffffffffffffffffffffff1673ffffffffffffffffffffffffffffffffffffffff1673ffffffffffffffffffffffffffffffffffffffff1681526020016003820160009054906101000a900473ffffffffffffffffffffffffffffffffffffffff1673ffffffffffffffffffffffffffffffffffffffff1673ffffffffffffffffffffffffffffffffffffffff168152602001600482015481526020016005820154815260200160068201805461155090614fed565b80601f016020809104026020016040519081016040528092919081815260200182805461157c90614fed565b80156115c95780601f1061159e576101008083540402835291602001916115c9565b820191906000526020600020905b8154815290600101906020018083116115ac57829003601f168201915b50505050508152602001600782015481526020016008820160009054906101000a900460ff1615151515815250509050919050565b60606001805461160d90614fed565b80601f016020809104026020016040519081016040528092919081815260200182805461163990614fed565b80156116865780601f1061165b57610100808354040283529160200191611686565b820191906000526020600020905b81548152906001019060200180831161166957829003601f168201915b5050505050905090565b6116a261169b61286f565b8383612ca6565b5050565b8160006116b282610fe9565b90503373ffffffffffffffffffffffffffffffffffffffff168173ffffffffffffffffffffffffffffffffffffffff1614611722576040517f08c379a000000000000000000000000000000000000000000000000000000000815260040161171990614b30565b60405180910390fd5b600073ffffffffffffffffffffffffffffffffffffffff163373ffffffffffffffffffffffffffffffffffffffff16141561175c57600080fd5b61176584612c2c565b61176e57600080fd5b600083116117b1576040517f08c379a00000000000000000000000000000000000000000000000000000000081526004016117a890614bd0565b60405180910390fd5b6000600a600086815260200190815260200160002060405180610120016040529081600082015481526020016001820180546117ec90614fed565b80601f016020809104026020016040519081016040528092919081815260200182805461181890614fed565b80156118655780601f1061183a57610100808354040283529160200191611865565b820191906000526020600020905b81548152906001019060200180831161184857829003601f168201915b505050505081526020016002820160009054906101000a900473ffffffffffffffffffffffffffffffffffffffff1673ffffffffffffffffffffffffffffffffffffffff1673ffffffffffffffffffffffffffffffffffffffff1681526020016003820160009054906101000a900473ffffffffffffffffffffffffffffffffffffffff1673ffffffffffffffffffffffffffffffffffffffff1673ffffffffffffffffffffffffffffffffffffffff168152602001600482015481526020016005820154815260200160068201805461193e90614fed565b80601f016020809104026020016040519081016040528092919081815260200182805461196a90614fed565b80156119b75780601f1061198c576101008083540402835291602001916119b7565b820191906000526020600020905b81548152906001019060200180831161199a57829003601f168201915b50505050508152602001600782015481526020016008820160009054906101000a900460ff1615151515815250509050838160e001818152505080600a6000878152602001908152602001600020600082015181600001556020820151816001019080519060200190611a2b929190613c4d565b5060408201518160020160006101000a81548173ffffffffffffffffffffffffffffffffffffffff021916908373ffffffffffffffffffffffffffffffffffffffff16021790555060608201518160030160006101000a81548173ffffffffffffffffffffffffffffffffffffffff021916908373ffffffffffffffffffffffffffffffffffffffff1602179055506080820151816004015560a0820151816005015560c0820151816006019080519060200190611aea929190613c4d565b5060e082015181600701556101008201518160080160006101000a81548160ff0219169083151502179055509050505050505050565b611b31611b2b61286f565b83612930565b611b70576040517f08c379a0000000000000000000000000000000000000000000000000000000008152600401611b6790614cf0565b60405180910390fd5b611b7c84848484612e13565b50505050565b6060611b8d82612824565b6000600660008481526020019081526020016000208054611bad90614fed565b80601f0160208091040260200160405190810160405280929190818152602001828054611bd990614fed565b8015611c265780601f10611bfb57610100808354040283529160200191611c26565b820191906000526020600020905b815481529060010190602001808311611c0957829003601f168201915b505050505090506000611c37612e6f565b9050600081511415611c4d578192505050611c90565b600082511115611c82578082604051602001611c6a92919061492b565b60405160208183030381529060405292505050611c90565b611c8b84612e86565b925050505b919050565b6009818051602081018201805184825260208301602085012081835280955050505050506000915054906101000a900460ff1681565b8385836000600860003373ffffffffffffffffffffffffffffffffffffffff1673ffffffffffffffffffffffffffffffffffffffff168152602001908152602001600020541415611d51576040517f08c379a0000000000000000000000000000000000000000000000000000000008152600401611d4890614a70565b60405180910390fd5b43600754600860003373ffffffffffffffffffffffffffffffffffffffff1673ffffffffffffffffffffffffffffffffffffffff16815260200190815260200160002054611d9f9190614e53565b11611ddf576040517f08c379a0000000000000000000000000000000000000000000000000000000008152600401611dd690614cd0565b60405180910390fd5b60001515600984604051611df39190614914565b908152602001604051809103902060009054906101000a900460ff16151514611e51576040517f08c379a0000000000000000000000000000000000000000000000000000000008152600401611e4890614cb0565b60405180910390fd5b600073ffffffffffffffffffffffffffffffffffffffff163373ffffffffffffffffffffffffffffffffffffffff161415611e8b57600080fd5b60008211611ece576040517f08c379a0000000000000000000000000000000000000000000000000000000008152600401611ec590614af0565b60405180910390fd5b60008111611f11576040517f08c379a0000000000000000000000000000000000000000000000000000000008152600401611f0890614a90565b60405180910390fd5b60008080611f208a8a8d612eee565b915091508115611f7257600160098b604051611f3c9190614914565b908152602001604051809103902060006101000a81548160ff021916908315150217905550611f6f8a8a8d8b8b33613052565b92505b7f01d0069b9880a524301482c295b7feddc589c44e51fa3562982c4eb090719d07828285604051611fa593929190614a17565b60405180910390a15050505050505050505050565b816000611fc682610fe9565b90503373ffffffffffffffffffffffffffffffffffffffff168173ffffffffffffffffffffffffffffffffffffffff1614612036576040517f08c379a000000000000000000000000000000000000000000000000000000000815260040161202d90614b30565b60405180910390fd5b600073ffffffffffffffffffffffffffffffffffffffff163373ffffffffffffffffffffffffffffffffffffffff16141561207057600080fd5b61207984612c2c565b61208257600080fd5b6000600a600086815260200190815260200160002060405180610120016040529081600082015481526020016001820180546120bd90614fed565b80601f01602080910402602001604051908101604052809291908181526020018280546120e990614fed565b80156121365780601f1061210b57610100808354040283529160200191612136565b820191906000526020600020905b81548152906001019060200180831161211957829003601f168201915b505050505081526020016002820160009054906101000a900473ffffffffffffffffffffffffffffffffffffffff1673ffffffffffffffffffffffffffffffffffffffff1673ffffffffffffffffffffffffffffffffffffffff1681526020016003820160009054906101000a900473ffffffffffffffffffffffffffffffffffffffff1673ffffffffffffffffffffffffffffffffffffffff1673ffffffffffffffffffffffffffffffffffffffff168152602001600482015481526020016005820154815260200160068201805461220f90614fed565b80601f016020809104026020016040519081016040528092919081815260200182805461223b90614fed565b80156122885780601f1061225d57610100808354040283529160200191612288565b820191906000526020600020905b81548152906001019060200180831161226b57829003601f168201915b50505050508152602001600782015481526020016008820160009054906101000a900460ff1615151515815250509050806101000151156122da576000816101000190151590811515815250506122ed565b6001816101000190151590811515815250505b600084111561230157838160e00181815250505b80600a600087815260200190815260200160002060008201518160000155602082015181600101908051906020019061233b929190613c4d565b5060408201518160020160006101000a81548173ffffffffffffffffffffffffffffffffffffffff021916908373ffffffffffffffffffffffffffffffffffffffff16021790555060608201518160030160006101000a81548173ffffffffffffffffffffffffffffffffffffffff021916908373ffffffffffffffffffffffffffffffffffffffff1602179055506080820151816004015560a0820151816005015560c08201518160060190805190602001906123fa929190613c4d565b5060e082015181600701556101008201518160080160006101000a81548160ff0219169083151502179055509050505050505050565b60075481565b6000600560008473ffffffffffffffffffffffffffffffffffffffff1673ffffffffffffffffffffffffffffffffffffffff16815260200190815260200160002060008373ffffffffffffffffffffffffffffffffffffffff1673ffffffffffffffffffffffffffffffffffffffff16815260200190815260200160002060009054906101000a900460ff16905092915050565b8486846000600860003373ffffffffffffffffffffffffffffffffffffffff1673ffffffffffffffffffffffffffffffffffffffff168152602001908152602001600020541415612550576040517f08c379a000000000000000000000000000000000000000000000000000000000815260040161254790614a70565b60405180910390fd5b43600754600860003373ffffffffffffffffffffffffffffffffffffffff1673ffffffffffffffffffffffffffffffffffffffff1681526020019081526020016000205461259e9190614e53565b116125de576040517f08c379a00000000000000000000000000000000000000000000000000000000081526004016125d590614cd0565b60405180910390fd5b600015156009846040516125f29190614914565b908152602001604051809103902060009054906101000a900460ff16151514612650576040517f08c379a000000000000000000000000000000000000000000000000000000000815260040161264790614cb0565b60405180910390fd5b600073ffffffffffffffffffffffffffffffffffffffff163373ffffffffffffffffffffffffffffffffffffffff16141561268a57600080fd5b600082116126cd576040517f08c379a00000000000000000000000000000000000000000000000000000000081526004016126c490614af0565b60405180910390fd5b60008111612710576040517f08c379a000000000000000000000000000000000000000000000000000000000815260040161270790614a90565b60405180910390fd5b6000808061271f8b8b8e612eee565b91509150811561277157600160098c60405161273b9190614914565b908152602001604051809103902060006101000a81548160ff02191690831515021790555061276e8b8b8e8c8c8c613052565b92505b7f01d0069b9880a524301482c295b7feddc589c44e51fa3562982c4eb090719d078282856040516127a493929190614a17565b60405180910390a1505050505050505050505050565b60007f01ffc9a7000000000000000000000000000000000000000000000000000000007bffffffffffffffffffffffffffffffffffffffffffffffffffffffff1916827bffffffffffffffffffffffffffffffffffffffffffffffffffffffff1916149050919050565b61282d81612c2c565b61286c576040517f08c379a000000000000000000000000000000000000000000000000000000000815260040161286390614c70565b60405180910390fd5b50565b600033905090565b816004600083815260200190815260200160002060006101000a81548173ffffffffffffffffffffffffffffffffffffffff021916908373ffffffffffffffffffffffffffffffffffffffff160217905550808273ffffffffffffffffffffffffffffffffffffffff166128ea83610fe9565b73ffffffffffffffffffffffffffffffffffffffff167f8c5be1e5ebec7d5bd14f71427d1e84f3dd0314c0f7b2291e5b200ac8c7c3b92560405160405180910390a45050565b60008061293c83610fe9565b90508073ffffffffffffffffffffffffffffffffffffffff168473ffffffffffffffffffffffffffffffffffffffff16148061297e575061297d8185612436565b5b806129bc57508373ffffffffffffffffffffffffffffffffffffffff166129a4846107a7565b73ffffffffffffffffffffffffffffffffffffffff16145b91505092915050565b8273ffffffffffffffffffffffffffffffffffffffff166129e582610fe9565b73ffffffffffffffffffffffffffffffffffffffff1614612a3b576040517f08c379a0000000000000000000000000000000000000000000000000000000008152600401612a3290614ad0565b60405180910390fd5b600073ffffffffffffffffffffffffffffffffffffffff168273ffffffffffffffffffffffffffffffffffffffff161415612aab576040517f08c379a0000000000000000000000000000000000000000000000000000000008152600401612aa290614b50565b60405180910390fd5b612ab68383836132a9565b612ac1600082612877565b6001600360008573ffffffffffffffffffffffffffffffffffffffff1673ffffffffffffffffffffffffffffffffffffffff1681526020019081526020016000206000828254612b119190614eda565b925050819055506001600360008473ffffffffffffffffffffffffffffffffffffffff1673ffffffffffffffffffffffffffffffffffffffff1681526020019081526020016000206000828254612b689190614e53565b92505081905550816002600083815260200190815260200160002060006101000a81548173ffffffffffffffffffffffffffffffffffffffff021916908373ffffffffffffffffffffffffffffffffffffffff160217905550808273ffffffffffffffffffffffffffffffffffffffff168473ffffffffffffffffffffffffffffffffffffffff167fddf252ad1be2c89b69c2b068fc378daa952ba7f163c4a11628f55a4df523b3ef60405160405180910390a4612c2783838361367d565b505050565b60008073ffffffffffffffffffffffffffffffffffffffff166002600084815260200190815260200160002060009054906101000a900473ffffffffffffffffffffffffffffffffffffffff1673ffffffffffffffffffffffffffffffffffffffff1614159050919050565b600081600001549050919050565b8173ffffffffffffffffffffffffffffffffffffffff168373ffffffffffffffffffffffffffffffffffffffff161415612d15576040517f08c379a0000000000000000000000000000000000000000000000000000000008152600401612d0c90614b70565b60405180910390fd5b80600560008573ffffffffffffffffffffffffffffffffffffffff1673ffffffffffffffffffffffffffffffffffffffff16815260200190815260200160002060008473ffffffffffffffffffffffffffffffffffffffff1673ffffffffffffffffffffffffffffffffffffffff16815260200190815260200160002060006101000a81548160ff0219169083151502179055508173ffffffffffffffffffffffffffffffffffffffff168373ffffffffffffffffffffffffffffffffffffffff167f17307eab39ab6107e8899845ad3d59bd9653f200f220920489ca2b5937696c3183604051612e0691906149fc565b60405180910390a3505050565b612e1e8484846129c5565b612e2a84848484613682565b612e69576040517f08c379a0000000000000000000000000000000000000000000000000000000008152600401612e6090614ab0565b60405180910390fd5b50505050565b606060405180602001604052806000815250905090565b6060612e9182612824565b6000612e9b612e6f565b90506000815111612ebb5760405180602001604052806000815250612ee6565b80612ec584613819565b604051602001612ed692919061492b565b6040516020818303038152906040525b915050919050565b600080600060019050600060028787612f45600860003373ffffffffffffffffffffffffffffffffffffffff1673ffffffffffffffffffffffffffffffffffffffff16815260200190815260200160002054613819565b604051602001612f579392919061494f565b604051602081830303815290604052604051612f7391906148fd565b602060405180830381855afa158015612f90573d6000803e3d6000fd5b5050506040513d601f19601f82011682018060405250810190612fb3919061409d565b905060005b8581101561304157600060f81b828260208110612ffe577f4e487b7100000000000000000000000000000000000000000000000000000000600052603260045260246000fd5b1a60f81b7effffffffffffffffffffffffffffffffffffffffffffffffffffffffffffff19161461302e57600092505b808061303990615050565b915050612fb8565b508181935093505050935093915050565b600061305e600b6139c6565b600061306a600b612c98565b905061307683826139dc565b600033828a4360405160200161308f94939291906148b3565b60405160208183030381529060405280519060200120905060006130b282611164565b90506130be8382613bb6565b60006040518061012001604052808581526020018c81526020018773ffffffffffffffffffffffffffffffffffffffff168152602001600073ffffffffffffffffffffffffffffffffffffffff1681526020018a8152602001600860003373ffffffffffffffffffffffffffffffffffffffff1673ffffffffffffffffffffffffffffffffffffffff1681526020019081526020016000205481526020018b8152602001898152602001881515815250905080600a60008681526020019081526020016000206000820151816000015560208201518160010190805190602001906131aa929190613c4d565b5060408201518160020160006101000a81548173ffffffffffffffffffffffffffffffffffffffff021916908373ffffffffffffffffffffffffffffffffffffffff16021790555060608201518160030160006101000a81548173ffffffffffffffffffffffffffffffffffffffff021916908373ffffffffffffffffffffffffffffffffffffffff1602179055506080820151816004015560a0820151816005015560c0820151816006019080519060200190613269929190613c4d565b5060e082015181600701556101008201518160080160006101000a81548160ff021916908315150217905550905050839450505050509695505050505050565b6000600a600083815260200190815260200160002060405180610120016040529081600082015481526020016001820180546132e490614fed565b80601f016020809104026020016040519081016040528092919081815260200182805461331090614fed565b801561335d5780601f106133325761010080835404028352916020019161335d565b820191906000526020600020905b81548152906001019060200180831161334057829003601f168201915b505050505081526020016002820160009054906101000a900473ffffffffffffffffffffffffffffffffffffffff1673ffffffffffffffffffffffffffffffffffffffff1673ffffffffffffffffffffffffffffffffffffffff1681526020016003820160009054906101000a900473ffffffffffffffffffffffffffffffffffffffff1673ffffffffffffffffffffffffffffffffffffffff1673ffffffffffffffffffffffffffffffffffffffff168152602001600482015481526020016005820154815260200160068201805461343690614fed565b80601f016020809104026020016040519081016040528092919081815260200182805461346290614fed565b80156134af5780601f10613484576101008083540402835291602001916134af565b820191906000526020600020905b81548152906001019060200180831161349257829003601f168201915b50505050508152602001600782015481526020016008820160009054906101000a900460ff161515151581525050905083816060019073ffffffffffffffffffffffffffffffffffffffff16908173ffffffffffffffffffffffffffffffffffffffff168152505082816040019073ffffffffffffffffffffffffffffffffffffffff16908173ffffffffffffffffffffffffffffffffffffffff168152505080600a6000848152602001908152602001600020600082015181600001556020820151816001019080519060200190613589929190613c4d565b5060408201518160020160006101000a81548173ffffffffffffffffffffffffffffffffffffffff021916908373ffffffffffffffffffffffffffffffffffffffff16021790555060608201518160030160006101000a81548173ffffffffffffffffffffffffffffffffffffffff021916908373ffffffffffffffffffffffffffffffffffffffff1602179055506080820151816004015560a0820151816005015560c0820151816006019080519060200190613648929190613c4d565b5060e082015181600701556101008201518160080160006101000a81548160ff02191690831515021790555090505050505050565b505050565b60006136a38473ffffffffffffffffffffffffffffffffffffffff16613c2a565b1561380c578373ffffffffffffffffffffffffffffffffffffffff1663150b7a026136cc61286f565b8786866040518563ffffffff1660e01b81526004016136ee94939291906149b0565b602060405180830381600087803b15801561370857600080fd5b505af192505050801561373957506040513d601f19601f8201168201806040525081019061373691906140ef565b60015b6137bc573d8060008114613769576040519150601f19603f3d011682016040523d82523d6000602084013e61376e565b606091505b506000815114156137b4576040517f08c379a00000000000000000000000000000000000000000000000000000000081526004016137ab90614ab0565b60405180910390fd5b805181602001fd5b63150b7a0260e01b7bffffffffffffffffffffffffffffffffffffffffffffffffffffffff1916817bffffffffffffffffffffffffffffffffffffffffffffffffffffffff191614915050613811565b600190505b949350505050565b60606000821415613861576040518060400160405280600181526020017f300000000000000000000000000000000000000000000000000000000000000081525090506139c1565b600082905060005b6000821461389357808061387c90615050565b915050600a8261388c9190614ea9565b9150613869565b60008167ffffffffffffffff8111156138d5577f4e487b7100000000000000000000000000000000000000000000000000000000600052604160045260246000fd5b6040519080825280601f01601f1916602001820160405280156139075781602001600182028036833780820191505090505b5090505b600085146139ba576001826139209190614eda565b9150600a8561392f91906150f1565b603061393b9190614e53565b60f81b818381518110613977577f4e487b7100000000000000000000000000000000000000000000000000000000600052603260045260246000fd5b60200101907effffffffffffffffffffffffffffffffffffffffffffffffffffffffffffff1916908160001a905350600a856139b39190614ea9565b945061390b565b8093505050505b919050565b6001816000016000828254019250508190555050565b600073ffffffffffffffffffffffffffffffffffffffff168273ffffffffffffffffffffffffffffffffffffffff161415613a4c576040517f08c379a0000000000000000000000000000000000000000000000000000000008152600401613a4390614c30565b60405180910390fd5b613a5581612c2c565b15613a95576040517f08c379a0000000000000000000000000000000000000000000000000000000008152600401613a8c90614b10565b60405180910390fd5b613aa1600083836132a9565b6001600360008473ffffffffffffffffffffffffffffffffffffffff1673ffffffffffffffffffffffffffffffffffffffff1681526020019081526020016000206000828254613af19190614e53565b92505081905550816002600083815260200190815260200160002060006101000a81548173ffffffffffffffffffffffffffffffffffffffff021916908373ffffffffffffffffffffffffffffffffffffffff160217905550808273ffffffffffffffffffffffffffffffffffffffff16600073ffffffffffffffffffffffffffffffffffffffff167fddf252ad1be2c89b69c2b068fc378daa952ba7f163c4a11628f55a4df523b3ef60405160405180910390a4613bb26000838361367d565b5050565b613bbf82612c2c565b613bfe576040517f08c379a0000000000000000000000000000000000000000000000000000000008152600401613bf590614bb0565b60405180910390fd5b80600660008481526020019081526020016000209080519060200190613c25929190613c4d565b505050565b6000808273ffffffffffffffffffffffffffffffffffffffff163b119050919050565b828054613c5990614fed565b90600052602060002090601f016020900481019282613c7b5760008555613cc2565b82601f10613c9457805160ff1916838001178555613cc2565b82800160010185558215613cc2579182015b82811115613cc1578251825591602001919060010190613ca6565b5b509050613ccf9190613d4d565b5090565b6040518061012001604052806000815260200160608152602001600073ffffffffffffffffffffffffffffffffffffffff168152602001600073ffffffffffffffffffffffffffffffffffffffff168152602001600081526020016000815260200160608152602001600081526020016000151581525090565b5b80821115613d66576000816000905550600101613d4e565b5090565b6000613d7d613d7884614d92565b614d6d565b905082815260208101848484011115613d9557600080fd5b613da0848285614fab565b509392505050565b6000613dbb613db684614dc3565b614d6d565b905082815260208101848484011115613dd357600080fd5b613dde848285614fab565b509392505050565b600081359050613df5816156b5565b92915050565b600081359050613e0a816156cc565b92915050565b600081359050613e1f816156e3565b92915050565b600081519050613e34816156e3565b92915050565b600081359050613e49816156fa565b92915050565b600081519050613e5e816156fa565b92915050565b600082601f830112613e7557600080fd5b8135613e85848260208601613d6a565b91505092915050565b600082601f830112613e9f57600080fd5b8135613eaf848260208601613da8565b91505092915050565b600081359050613ec781615711565b92915050565b600060208284031215613edf57600080fd5b6000613eed84828501613de6565b91505092915050565b60008060408385031215613f0957600080fd5b6000613f1785828601613de6565b9250506020613f2885828601613de6565b9150509250929050565b600080600060608486031215613f4757600080fd5b6000613f5586828701613de6565b9350506020613f6686828701613de6565b9250506040613f7786828701613eb8565b9150509250925092565b60008060008060808587031215613f9757600080fd5b6000613fa587828801613de6565b9450506020613fb687828801613de6565b9350506040613fc787828801613eb8565b925050606085013567ffffffffffffffff811115613fe457600080fd5b613ff087828801613e64565b91505092959194509250565b6000806040838503121561400f57600080fd5b600061401d85828601613de6565b925050602061402e85828601613dfb565b9150509250929050565b6000806040838503121561404b57600080fd5b600061405985828601613de6565b925050602061406a85828601613eb8565b9150509250929050565b60006020828403121561408657600080fd5b600061409484828501613e10565b91505092915050565b6000602082840312156140af57600080fd5b60006140bd84828501613e25565b91505092915050565b6000602082840312156140d857600080fd5b60006140e684828501613e3a565b91505092915050565b60006020828403121561410157600080fd5b600061410f84828501613e4f565b91505092915050565b60006020828403121561412a57600080fd5b600082013567ffffffffffffffff81111561414457600080fd5b61415084828501613e8e565b91505092915050565b60006020828403121561416b57600080fd5b600061417984828501613eb8565b91505092915050565b600080600080600060a0868803121561419a57600080fd5b60006141a888828901613eb8565b955050602086013567ffffffffffffffff8111156141c557600080fd5b6141d188828901613e8e565b945050604086013567ffffffffffffffff8111156141ee57600080fd5b6141fa88828901613e8e565b935050606061420b88828901613eb8565b925050608061421c88828901613dfb565b9150509295509295909350565b60008060008060008060c0878903121561424257600080fd5b600061425089828a01613eb8565b965050602087013567ffffffffffffffff81111561426d57600080fd5b61427989828a01613e8e565b955050604087013567ffffffffffffffff81111561429657600080fd5b6142a289828a01613e8e565b94505060606142b389828a01613eb8565b93505060806142c489828a01613dfb565b92505060a06142d589828a01613de6565b9150509295509295509295565b600080604083850312156142f557600080fd5b600061430385828601613eb8565b925050602061431485828601613eb8565b9150509250929050565b61432781614f20565b82525050565b61433681614f0e565b82525050565b61434d61434882614f0e565b6150c3565b82525050565b61435c81614f32565b82525050565b61436b81614f32565b82525050565b61437a81614f3e565b82525050565b600061438b82614df4565b6143958185614e0a565b93506143a5818560208601614fba565b6143ae816151de565b840191505092915050565b60006143c482614df4565b6143ce8185614e1b565b93506143de818560208601614fba565b80840191505092915050565b60006143f582614dff565b6143ff8185614e26565b935061440f818560208601614fba565b614418816151de565b840191505092915050565b600061442e82614dff565b6144388185614e37565b9350614448818560208601614fba565b614451816151de565b840191505092915050565b600061446782614dff565b6144718185614e48565b9350614481818560208601614fba565b80840191505092915050565b600061449a601583614e37565b91506144a5826151fc565b602082019050919050565b60006144bd601183614e37565b91506144c882615225565b602082019050919050565b60006144e0603283614e37565b91506144eb8261524e565b604082019050919050565b6000614503602583614e37565b915061450e8261529d565b604082019050919050565b6000614526601083614e37565b9150614531826152ec565b602082019050919050565b6000614549601c83614e37565b915061455482615315565b602082019050919050565b600061456c601683614e37565b91506145778261533e565b602082019050919050565b600061458f602483614e37565b915061459a82615367565b604082019050919050565b60006145b2601983614e37565b91506145bd826153b6565b602082019050919050565b60006145d5602983614e37565b91506145e0826153df565b604082019050919050565b60006145f8602e83614e37565b91506146038261542e565b604082019050919050565b600061461b601183614e37565b91506146268261547d565b602082019050919050565b600061463e601683614e37565b9150614649826154a6565b602082019050919050565b6000614661603e83614e37565b915061466c826154cf565b604082019050919050565b6000614684602083614e37565b915061468f8261551e565b602082019050919050565b60006146a7601483614e37565b91506146b282615547565b602082019050919050565b60006146ca601883614e37565b91506146d582615570565b602082019050919050565b60006146ed602183614e37565b91506146f882615599565b604082019050919050565b6000614710600083614e1b565b915061471b826155e8565b600082019050919050565b6000614733600f83614e37565b915061473e826155eb565b602082019050919050565b6000614756601383614e37565b915061476182615614565b602082019050919050565b6000614779602e83614e37565b91506147848261563d565b604082019050919050565b600061479c601983614e37565b91506147a78261568c565b602082019050919050565b6000610120830160008301516147cb600086018261487e565b50602083015184820360208601526147e382826143ea565b91505060408301516147f8604086018261431e565b50606083015161480b606086018261431e565b50608083015161481e608086018261487e565b5060a083015161483160a086018261487e565b5060c083015184820360c086015261484982826143ea565b91505060e083015161485e60e086018261487e565b50610100830151614873610100860182614353565b508091505092915050565b61488781614f94565b82525050565b61489681614f94565b82525050565b6148ad6148a882614f94565b6150e7565b82525050565b60006148bf828761433c565b6014820191506148cf828661489c565b6020820191506148df828561445c565b91506148eb828461489c565b60208201915081905095945050505050565b600061490982846143b9565b915081905092915050565b6000614920828461445c565b915081905092915050565b6000614937828561445c565b9150614943828461445c565b91508190509392505050565b600061495b828661445c565b9150614967828561445c565b9150614973828461445c565b9150819050949350505050565b600061498b82614703565b9150819050919050565b60006020820190506149aa600083018461432d565b92915050565b60006080820190506149c5600083018761432d565b6149d2602083018661432d565b6149df604083018561488d565b81810360608301526149f18184614380565b905095945050505050565b6000602082019050614a116000830184614362565b92915050565b6000606082019050614a2c6000830186614362565b614a396020830185614371565b614a46604083018461488d565b949350505050565b60006020820190508181036000830152614a688184614423565b905092915050565b60006020820190508181036000830152614a898161448d565b9050919050565b60006020820190508181036000830152614aa9816144b0565b9050919050565b60006020820190508181036000830152614ac9816144d3565b9050919050565b60006020820190508181036000830152614ae9816144f6565b9050919050565b60006020820190508181036000830152614b0981614519565b9050919050565b60006020820190508181036000830152614b298161453c565b9050919050565b60006020820190508181036000830152614b498161455f565b9050919050565b60006020820190508181036000830152614b6981614582565b9050919050565b60006020820190508181036000830152614b89816145a5565b9050919050565b60006020820190508181036000830152614ba9816145c8565b9050919050565b60006020820190508181036000830152614bc9816145eb565b9050919050565b60006020820190508181036000830152614be98161460e565b9050919050565b60006020820190508181036000830152614c0981614631565b9050919050565b60006020820190508181036000830152614c2981614654565b9050919050565b60006020820190508181036000830152614c4981614677565b9050919050565b60006020820190508181036000830152614c698161469a565b9050919050565b60006020820190508181036000830152614c89816146bd565b9050919050565b60006020820190508181036000830152614ca9816146e0565b9050919050565b60006020820190508181036000830152614cc981614726565b9050919050565b60006020820190508181036000830152614ce981614749565b9050919050565b60006020820190508181036000830152614d098161476c565b9050919050565b60006020820190508181036000830152614d298161478f565b9050919050565b60006020820190508181036000830152614d4a81846147b2565b905092915050565b6000602082019050614d67600083018461488d565b92915050565b6000614d77614d88565b9050614d83828261501f565b919050565b6000604051905090565b600067ffffffffffffffff821115614dad57614dac6151af565b5b614db6826151de565b9050602081019050919050565b600067ffffffffffffffff821115614dde57614ddd6151af565b5b614de7826151de565b9050602081019050919050565b600081519050919050565b600081519050919050565b600082825260208201905092915050565b600081905092915050565b600082825260208201905092915050565b600082825260208201905092915050565b600081905092915050565b6000614e5e82614f94565b9150614e6983614f94565b9250827fffffffffffffffffffffffffffffffffffffffffffffffffffffffffffffffff03821115614e9e57614e9d615122565b5b828201905092915050565b6000614eb482614f94565b9150614ebf83614f94565b925082614ecf57614ece615151565b5b828204905092915050565b6000614ee582614f94565b9150614ef083614f94565b925082821015614f0357614f02615122565b5b828203905092915050565b6000614f1982614f74565b9050919050565b6000614f2b82614f74565b9050919050565b60008115159050919050565b6000819050919050565b60007fffffffff0000000000000000000000000000000000000000000000000000000082169050919050565b600073ffffffffffffffffffffffffffffffffffffffff82169050919050565b6000819050919050565b600060ff82169050919050565b82818337600083830152505050565b60005b83811015614fd8578082015181840152602081019050614fbd565b83811115614fe7576000848401525b50505050565b6000600282049050600182168061500557607f821691505b6020821081141561501957615018615180565b5b50919050565b615028826151de565b810181811067ffffffffffffffff82111715615047576150466151af565b5b80604052505050565b600061505b82614f94565b91507fffffffffffffffffffffffffffffffffffffffffffffffffffffffffffffffff82141561508e5761508d615122565b5b600182019050919050565b60006150a482614f9e565b915060ff8214156150b8576150b7615122565b5b600182019050919050565b60006150ce826150d5565b9050919050565b60006150e0826151ef565b9050919050565b6000819050919050565b60006150fc82614f94565b915061510783614f94565b92508261511757615116615151565b5b828206905092915050565b7f4e487b7100000000000000000000000000000000000000000000000000000000600052601160045260246000fd5b7f4e487b7100000000000000000000000000000000000000000000000000000000600052601260045260246000fd5b7f4e487b7100000000000000000000000000000000000000000000000000000000600052602260045260246000fd5b7f4e487b7100000000000000000000000000000000000000000000000000000000600052604160045260246000fd5b6000601f19601f8301169050919050565b60008160601b9050919050565b7f546f6c6572616e63652063616e6e6f7420626520300000000000000000000000600082015250565b7f50726963652063616e6e6f742062652030000000000000000000000000000000600082015250565b7f4552433732313a207472616e7366657220746f206e6f6e20455243373231526560008201527f63656976657220696d706c656d656e7465720000000000000000000000000000602082015250565b7f4552433732313a207472616e736665722066726f6d20696e636f72726563742060008201527f6f776e6572000000000000000000000000000000000000000000000000000000602082015250565b7f4174206c65617374203220737461727300000000000000000000000000000000600082015250565b7f4552433732313a20746f6b656e20616c7265616479206d696e74656400000000600082015250565b7f6f6e6c79207468652068617368696d61206f776e657200000000000000000000600082015250565b7f4552433732313a207472616e7366657220746f20746865207a65726f2061646460008201527f7265737300000000000000000000000000000000000000000000000000000000602082015250565b7f4552433732313a20617070726f766520746f2063616c6c657200000000000000600082015250565b7f4552433732313a2061646472657373207a65726f206973206e6f74206120766160008201527f6c6964206f776e65720000000000000000000000000000000000000000000000602082015250565b7f45524337323155524953746f726167653a2055524920736574206f66206e6f6e60008201527f6578697374656e7420746f6b656e000000000000000000000000000000000000602082015250565b7f70726963652063616e6e6f742062652030000000000000000000000000000000600082015250565b7f68617368696d61206973206e6f7420696e2073616c6500000000000000000000600082015250565b7f4552433732313a20617070726f76652063616c6c6572206973206e6f7420746f60008201527f6b656e206f776e6572206e6f7220617070726f76656420666f7220616c6c0000602082015250565b7f4552433732313a206d696e7420746f20746865207a65726f2061646472657373600082015250565b7f70726963652068617320746f2062652068696768000000000000000000000000600082015250565b7f4552433732313a20696e76616c696420746f6b656e2049440000000000000000600082015250565b7f4552433732313a20617070726f76616c20746f2063757272656e74206f776e6560008201527f7200000000000000000000000000000000000000000000000000000000000000602082015250565b50565b7f4e6f7420756e6971756520646174610000000000000000000000000000000000600082015250565b7f546f6c6572616e63652069732065787069726500000000000000000000000000600082015250565b7f4552433732313a2063616c6c6572206973206e6f7420746f6b656e206f776e6560008201527f72206e6f7220617070726f766564000000000000000000000000000000000000602082015250565b7f7472616e73616374696f6e206e6f742073756363657366756c00000000000000600082015250565b6156be81614f0e565b81146156c957600080fd5b50565b6156d581614f32565b81146156e057600080fd5b50565b6156ec81614f3e565b81146156f757600080fd5b50565b61570381614f48565b811461570e57600080fd5b50565b61571a81614f94565b811461572557600080fd5b5056fea2646970667358221220686bda4b1fcc3e1dfa177ff61064665e8cdfea4e07d236efbe11c51d53e4ddcd64736f6c63430008030033",
  "immutableReferences": {},
  "source": "// SPDX-License-Identifier: MIT\npragma solidity ^0.8.0;\n\nimport \"@openzeppelin/contracts/token/ERC721/extensions/ERC721URIStorage.sol\";\nimport \"./DNA.sol\";\nimport \"./Market.sol\";\n\n\ncontract Hashimon is DNA,Market{\n   \n    constructor() ERC721(\"Hashimon\", \"HASHIMON\") {}\n\n    function MintFor(\n        uint256 _stars,\n        string memory _data,\n        string memory _nonce,\n        uint256 _price,\n        bool _forSale,\n        address _receiver)public checkMintingData(_data,_stars,_price){\n            uint256 _id=0;\n\n            (bool respuesta,bytes32 _hashFinal)\n            =proofOfWork(_data,_nonce,_stars);\n      \n            if (respuesta) {\n                //Convert '_data' string in true inside the mapping.   \n                _names[_data]=true; \n\n                _id=createHashimaItem(\n                    _data,\n                    _nonce,\n                    _stars,\n                    _price,\n                    _forSale,\n                    _receiver\n                    );\n            }\n            \n            emit Minted(respuesta,_hashFinal,_id);\n    }\n\n    function Mint(\n        uint256 _stars,\n        string memory _data,\n        string memory _nonce,\n        uint256 _price,\n        bool _forSale\n        )public checkMintingData(_data,_stars,_price){\n\n        uint256 _id=0;\n\n        (\n            bool respuesta,\n            bytes32 _hashFinal)=proofOfWork(_data,_nonce,_stars);\n        \n        if (respuesta) {\n            _names[_data]=true; \n\n            _id=createHashimaItem(\n                _data,\n                _nonce,\n                _stars,\n                _price,\n                _forSale,\n                msg.sender\n                );\n        }\n        \n        emit Minted(respuesta,_hashFinal,_id);\n    }    \n\n}",
  "sourcePath": "/Users/aarontolentino/Documents/A-Hashimas/A-Hashimon/contracts/Hashimon.sol",
  "compiler": {
    "name": "solc",
    "version": "0.8.3+commit.8d00100c.Emscripten.clang"
  },
  "schemaVersion": "3.4.1",
  "updatedAt": "2022-12-18T08:22:28.775Z",
  "networkType": "ethereum",
  "devdoc": {
    "kind": "dev",
    "methods": {
      "approve(address,uint256)": {
        "details": "See {IERC721-approve}."
      },
      "balanceOf(address)": {
        "details": "See {IERC721-balanceOf}."
      },
      "getApproved(uint256)": {
        "details": "See {IERC721-getApproved}."
      },
      "isApprovedForAll(address,address)": {
        "details": "See {IERC721-isApprovedForAll}."
      },
      "name()": {
        "details": "See {IERC721Metadata-name}."
      },
      "ownerOf(uint256)": {
        "details": "See {IERC721-ownerOf}."
      },
      "safeTransferFrom(address,address,uint256)": {
        "details": "See {IERC721-safeTransferFrom}."
      },
      "safeTransferFrom(address,address,uint256,bytes)": {
        "details": "See {IERC721-safeTransferFrom}."
      },
      "setApprovalForAll(address,bool)": {
        "details": "See {IERC721-setApprovalForAll}."
      },
      "supportsInterface(bytes4)": {
        "details": "See {IERC165-supportsInterface}."
      },
      "symbol()": {
        "details": "See {IERC721Metadata-symbol}."
      },
      "tokenURI(uint256)": {
        "details": "See {IERC721Metadata-tokenURI}."
      },
      "transferFrom(address,address,uint256)": {
        "details": "See {IERC721-transferFrom}."
      }
    },
    "version": 1
  },
  "userdoc": {
    "kind": "user",
    "methods": {
      "Init()": {
        "notice": "Called by the user to set a initial 'Tolerance' Number. This function gaves timing to the minting process"
      },
      "toggleForSale(uint256,uint256)": {
        "notice": "User can change the market status of the NFT 1.On sale 2.Not avaliable"
      }
    },
    "version": 1
  }
}