{
  "contractName": "Server",
  "abi": [
    {
      "inputs": [
        {
          "internalType": "contract Hashimon",
          "name": "hashima_contract",
          "type": "address"
        }
      ],
      "stateMutability": "nonpayable",
      "type": "constructor"
    },
    {
      "anonymous": false,
      "inputs": [
        {
          "indexed": true,
          "internalType": "address",
          "name": "previousOwner",
          "type": "address"
        },
        {
          "indexed": true,
          "internalType": "address",
          "name": "newOwner",
          "type": "address"
        }
      ],
      "name": "OwnershipTransferred",
      "type": "event"
    },
    {
      "inputs": [],
      "name": "owner",
      "outputs": [
        {
          "internalType": "address",
          "name": "",
          "type": "address"
        }
      ],
      "stateMutability": "view",
      "type": "function",
      "constant": true
    },
    {
      "inputs": [],
      "name": "renounceOwnership",
      "outputs": [],
      "stateMutability": "nonpayable",
      "type": "function"
    },
    {
      "inputs": [
        {
          "internalType": "address",
          "name": "newOwner",
          "type": "address"
        }
      ],
      "name": "transferOwnership",
      "outputs": [],
      "stateMutability": "nonpayable",
      "type": "function"
    },
    {
      "inputs": [],
      "name": "payServer",
      "outputs": [],
      "stateMutability": "payable",
      "type": "function",
      "payable": true
    },
    {
      "inputs": [
        {
          "internalType": "address",
          "name": "_user",
          "type": "address"
        }
      ],
      "name": "setAmin",
      "outputs": [],
      "stateMutability": "nonpayable",
      "type": "function"
    },
    {
      "inputs": [
        {
          "internalType": "address",
          "name": "_user",
          "type": "address"
        }
      ],
      "name": "checkPayment",
      "outputs": [
        {
          "internalType": "bool",
          "name": "",
          "type": "bool"
        }
      ],
      "stateMutability": "view",
      "type": "function",
      "constant": true
    },
    {
      "inputs": [],
      "name": "Init",
      "outputs": [
        {
          "internalType": "uint256",
          "name": "",
          "type": "uint256"
        }
      ],
      "stateMutability": "nonpayable",
      "type": "function"
    },
    {
      "inputs": [
        {
          "internalType": "uint256",
          "name": "_stars",
          "type": "uint256"
        },
        {
          "internalType": "string",
          "name": "_data",
          "type": "string"
        },
        {
          "internalType": "string",
          "name": "_nonce",
          "type": "string"
        },
        {
          "internalType": "uint256",
          "name": "_price",
          "type": "uint256"
        },
        {
          "internalType": "bool",
          "name": "_forSale",
          "type": "bool"
        },
        {
          "internalType": "address",
          "name": "_receiver",
          "type": "address"
        }
      ],
      "name": "mint",
      "outputs": [],
      "stateMutability": "nonpayable",
      "type": "function"
    },
    {
      "inputs": [
        {
          "internalType": "uint256",
          "name": "_minPrice",
          "type": "uint256"
        }
      ],
      "name": "setMinPrice",
      "outputs": [],
      "stateMutability": "nonpayable",
      "type": "function"
    },
    {
      "inputs": [],
      "name": "getPrice",
      "outputs": [
        {
          "internalType": "uint256",
          "name": "",
          "type": "uint256"
        }
      ],
      "stateMutability": "view",
      "type": "function",
      "constant": true
    },
    {
      "inputs": [
        {
          "internalType": "address",
          "name": "_receiver",
          "type": "address"
        }
      ],
      "name": "withdraw",
      "outputs": [],
      "stateMutability": "nonpayable",
      "type": "function"
    }
  ],
  "bytecode": "0x608060405267016345785d8a00006005553480156200001d57600080fd5b506040516200156b3803806200156b8339818101604052810190620000439190620001ed565b62000063620000576200010a60201b60201c565b6200011260201b60201c565b6001808190555080600260006101000a81548173ffffffffffffffffffffffffffffffffffffffff021916908373ffffffffffffffffffffffffffffffffffffffff1602179055506001600460003373ffffffffffffffffffffffffffffffffffffffff1673ffffffffffffffffffffffffffffffffffffffff16815260200190815260200160002060006101000a81548160ff021916908315150217905550506200027b565b600033905090565b60008060009054906101000a900473ffffffffffffffffffffffffffffffffffffffff169050816000806101000a81548173ffffffffffffffffffffffffffffffffffffffff021916908373ffffffffffffffffffffffffffffffffffffffff1602179055508173ffffffffffffffffffffffffffffffffffffffff168173ffffffffffffffffffffffffffffffffffffffff167f8be0079c531659141344cd1fd0a4f28419497f9722a3daafe3b4186f6b6457e060405160405180910390a35050565b600081519050620001e78162000261565b92915050565b6000602082840312156200020057600080fd5b60006200021084828501620001d6565b91505092915050565b6000620002268262000241565b9050919050565b60006200023a8262000219565b9050919050565b600073ffffffffffffffffffffffffffffffffffffffff82169050919050565b6200026c816200022d565b81146200027857600080fd5b50565b6112e0806200028b6000396000f3fe60806040526004361061009c5760003560e01c8063715018a611610064578063715018a61461018457806372c774a41461019b5780638c70cd0f146101c45780638da5cb5b146101ce57806398d5fdca146101f9578063f2fde38b146102245761009c565b806322d1b4bb146100a15780633b56fdc6146100ca57806351cff8d91461010757806357a86f7d146101305780635ea8cd121461015b575b600080fd5b3480156100ad57600080fd5b506100c860048036038101906100c39190610b3e565b61024d565b005b3480156100d657600080fd5b506100f160048036038101906100ec9190610b3e565b6102fc565b6040516100fe9190610e20565b60405180910390f35b34801561011357600080fd5b5061012e60048036038101906101299190610b3e565b610352565b005b34801561013c57600080fd5b50610145610410565b6040516101529190610f1b565b60405180910390f35b34801561016757600080fd5b50610182600480360381019061017d9190610b67565b61054b565b005b34801561019057600080fd5b5061019961056a565b005b3480156101a757600080fd5b506101c260048036038101906101bd9190610bb9565b61057e565b005b6101cc6107e2565b005b3480156101da57600080fd5b506101e3610881565b6040516101f09190610e05565b60405180910390f35b34801561020557600080fd5b5061020e6108aa565b60405161021b9190610f1b565b60405180910390f35b34801561023057600080fd5b5061024b60048036038101906102469190610b3e565b6108b4565b005b610255610938565b600460008273ffffffffffffffffffffffffffffffffffffffff1673ffffffffffffffffffffffffffffffffffffffff16815260200190815260200160002060009054906101000a900460ff1615600460008373ffffffffffffffffffffffffffffffffffffffff1673ffffffffffffffffffffffffffffffffffffffff16815260200190815260200160002060006101000a81548160ff02191690831515021790555050565b6000600360008373ffffffffffffffffffffffffffffffffffffffff1673ffffffffffffffffffffffffffffffffffffffff16815260200190815260200160002060009054906101000a900460ff169050919050565b61035a610938565b600047905060008273ffffffffffffffffffffffffffffffffffffffff168260405161038590610df0565b60006040518083038185875af1925050503d80600081146103c2576040519150601f19603f3d011682016040523d82523d6000602084013e6103c7565b606091505b505090508061040b576040517f08c379a000000000000000000000000000000000000000000000000000000000815260040161040290610efb565b60405180910390fd5b505050565b6000600460003373ffffffffffffffffffffffffffffffffffffffff1673ffffffffffffffffffffffffffffffffffffffff16815260200190815260200160002060009054906101000a900460ff1661049e576040517f08c379a000000000000000000000000000000000000000000000000000000000815260040161049590610ebb565b60405180910390fd5b6000600260009054906101000a900473ffffffffffffffffffffffffffffffffffffffff1673ffffffffffffffffffffffffffffffffffffffff166357a86f7d6040518163ffffffff1660e01b8152600401602060405180830381600087803b15801561050a57600080fd5b505af115801561051e573d6000803e3d6000fd5b505050506040513d601f19601f820116820180604052508101906105429190610b90565b90508091505090565b610553610938565b6000811161056057600080fd5b8060058190555050565b610572610938565b61057c60006109b6565b565b600460003373ffffffffffffffffffffffffffffffffffffffff1673ffffffffffffffffffffffffffffffffffffffff16815260200190815260200160002060009054906101000a900460ff1661060a576040517f08c379a000000000000000000000000000000000000000000000000000000000815260040161060190610ebb565b60405180910390fd5b60026001541415610650576040517f08c379a000000000000000000000000000000000000000000000000000000000815260040161064790610edb565b60405180910390fd5b6002600181905550600360008273ffffffffffffffffffffffffffffffffffffffff1673ffffffffffffffffffffffffffffffffffffffff16815260200190815260200160002060009054906101000a900460ff166106e4576040517f08c379a00000000000000000000000000000000000000000000000000000000081526004016106db90610e9b565b60405180910390fd5b600260009054906101000a900473ffffffffffffffffffffffffffffffffffffffff1673ffffffffffffffffffffffffffffffffffffffff1663eeaba6378787878787876040518763ffffffff1660e01b815260040161074996959493929190610f36565b600060405180830381600087803b15801561076357600080fd5b505af1158015610777573d6000803e3d6000fd5b505050506000600360008373ffffffffffffffffffffffffffffffffffffffff1673ffffffffffffffffffffffffffffffffffffffff16815260200190815260200160002060006101000a81548160ff02191690831515021790555060018081905550505050505050565b600554341015610827576040517f08c379a000000000000000000000000000000000000000000000000000000000815260040161081e90610e5b565b60405180910390fd5b6001600360003373ffffffffffffffffffffffffffffffffffffffff1673ffffffffffffffffffffffffffffffffffffffff16815260200190815260200160002060006101000a81548160ff021916908315150217905550565b60008060009054906101000a900473ffffffffffffffffffffffffffffffffffffffff16905090565b6000600554905090565b6108bc610938565b600073ffffffffffffffffffffffffffffffffffffffff168173ffffffffffffffffffffffffffffffffffffffff16141561092c576040517f08c379a000000000000000000000000000000000000000000000000000000000815260040161092390610e3b565b60405180910390fd5b610935816109b6565b50565b610940610a7a565b73ffffffffffffffffffffffffffffffffffffffff1661095e610881565b73ffffffffffffffffffffffffffffffffffffffff16146109b4576040517f08c379a00000000000000000000000000000000000000000000000000000000081526004016109ab90610e7b565b60405180910390fd5b565b60008060009054906101000a900473ffffffffffffffffffffffffffffffffffffffff169050816000806101000a81548173ffffffffffffffffffffffffffffffffffffffff021916908373ffffffffffffffffffffffffffffffffffffffff1602179055508173ffffffffffffffffffffffffffffffffffffffff168173ffffffffffffffffffffffffffffffffffffffff167f8be0079c531659141344cd1fd0a4f28419497f9722a3daafe3b4186f6b6457e060405160405180910390a35050565b600033905090565b6000610a95610a9084610fca565b610fa5565b905082815260208101848484011115610aad57600080fd5b610ab884828561106a565b509392505050565b600081359050610acf81611265565b92915050565b600081359050610ae48161127c565b92915050565b600082601f830112610afb57600080fd5b8135610b0b848260208601610a82565b91505092915050565b600081359050610b2381611293565b92915050565b600081519050610b3881611293565b92915050565b600060208284031215610b5057600080fd5b6000610b5e84828501610ac0565b91505092915050565b600060208284031215610b7957600080fd5b6000610b8784828501610b14565b91505092915050565b600060208284031215610ba257600080fd5b6000610bb084828501610b29565b91505092915050565b60008060008060008060c08789031215610bd257600080fd5b6000610be089828a01610b14565b965050602087013567ffffffffffffffff811115610bfd57600080fd5b610c0989828a01610aea565b955050604087013567ffffffffffffffff811115610c2657600080fd5b610c3289828a01610aea565b9450506060610c4389828a01610b14565b9350506080610c5489828a01610ad5565b92505060a0610c6589828a01610ac0565b9150509295509295509295565b610c7b81611022565b82525050565b610c8a81611034565b82525050565b6000610c9b82610ffb565b610ca58185611011565b9350610cb5818560208601611079565b610cbe8161110c565b840191505092915050565b6000610cd6602683611011565b9150610ce18261111d565b604082019050919050565b6000610cf9601283611011565b9150610d048261116c565b602082019050919050565b6000610d1c602083611011565b9150610d2782611195565b602082019050919050565b6000610d3f600b83611011565b9150610d4a826111be565b602082019050919050565b6000610d62600083611006565b9150610d6d826111e7565b600082019050919050565b6000610d85600983611011565b9150610d90826111ea565b602082019050919050565b6000610da8601f83611011565b9150610db382611213565b602082019050919050565b6000610dcb601083611011565b9150610dd68261123c565b602082019050919050565b610dea81611060565b82525050565b6000610dfb82610d55565b9150819050919050565b6000602082019050610e1a6000830184610c72565b92915050565b6000602082019050610e356000830184610c81565b92915050565b60006020820190508181036000830152610e5481610cc9565b9050919050565b60006020820190508181036000830152610e7481610cec565b9050919050565b60006020820190508181036000830152610e9481610d0f565b9050919050565b60006020820190508181036000830152610eb481610d32565b9050919050565b60006020820190508181036000830152610ed481610d78565b9050919050565b60006020820190508181036000830152610ef481610d9b565b9050919050565b60006020820190508181036000830152610f1481610dbe565b9050919050565b6000602082019050610f306000830184610de1565b92915050565b600060c082019050610f4b6000830189610de1565b8181036020830152610f5d8188610c90565b90508181036040830152610f718187610c90565b9050610f806060830186610de1565b610f8d6080830185610c81565b610f9a60a0830184610c72565b979650505050505050565b6000610faf610fc0565b9050610fbb82826110ac565b919050565b6000604051905090565b600067ffffffffffffffff821115610fe557610fe46110dd565b5b610fee8261110c565b9050602081019050919050565b600081519050919050565b600081905092915050565b600082825260208201905092915050565b600061102d82611040565b9050919050565b60008115159050919050565b600073ffffffffffffffffffffffffffffffffffffffff82169050919050565b6000819050919050565b82818337600083830152505050565b60005b8381101561109757808201518184015260208101905061107c565b838111156110a6576000848401525b50505050565b6110b58261110c565b810181811067ffffffffffffffff821117156110d4576110d36110dd565b5b80604052505050565b7f4e487b7100000000000000000000000000000000000000000000000000000000600052604160045260246000fd5b6000601f19601f8301169050919050565b7f4f776e61626c653a206e6577206f776e657220697320746865207a65726f206160008201527f6464726573730000000000000000000000000000000000000000000000000000602082015250565b7f6d696e207072696365206e6f2072656163680000000000000000000000000000600082015250565b7f4f776e61626c653a2063616c6c6572206973206e6f7420746865206f776e6572600082015250565b7f75736572206e6f20706179000000000000000000000000000000000000000000600082015250565b50565b7f6e6f742061646d696e0000000000000000000000000000000000000000000000600082015250565b7f5265656e7472616e637947756172643a207265656e7472616e742063616c6c00600082015250565b7f4e6f20636f6f6c20776974686472617700000000000000000000000000000000600082015250565b61126e81611022565b811461127957600080fd5b50565b61128581611034565b811461129057600080fd5b50565b61129c81611060565b81146112a757600080fd5b5056fea2646970667358221220ab47dc3fb5b1028d4c58163387f024ffd9e21b4b5f3948284251b447473d4b7c64736f6c63430008030033",
  "immutableReferences": {},
  "source": "// SPDX-License-Identifier: MIT\npragma solidity ^0.8.0;\n\nimport \"./Hashimon.sol\";\nimport \"@openzeppelin/contracts/access/Ownable.sol\";\nimport \"@openzeppelin/contracts/security/ReentrancyGuard.sol\";\n\ncontract Server is Ownable,ReentrancyGuard{\n\n    Hashimon hashimaContract;\n    \n    constructor(Hashimon hashima_contract){\n        hashimaContract=hashima_contract;\n        //Establecemos primer admin\n        ADMIN[msg.sender]=true;\n    \n    }\n\n    // Rastrear que cuentas han pagado su emision con el contrato\n    mapping(address=>bool) debt;\n\n    // Lista de administradores\n    mapping(address=>bool) ADMIN\n    ;\n    uint256 minPrice=0.1 ether;\n\n    function payServer()external payable{\n        require(msg.value>=minPrice,'min price no reach');\n\n        debt[msg.sender]=true;\n    }\n\n    //Esta funciona la llama el servidor para ver si el usuario pago su Hashima\n    //devuelve si pago y cuantas estrellas junto con la URI\n    function setAmin(address _user)external onlyOwner{\n        ADMIN[_user]=!ADMIN[_user];\n    }\n\n    //Generar un nuevo administrador\n    function checkPayment(address _user)public view returns(bool){\n        return debt[_user];\n    }\n\n    modifier isAdmin(){\n        require(ADMIN[msg.sender],'not admin');\n        _;\n    }\n\n    function Init()external isAdmin returns(uint256){\n        uint256 _blockNumber=hashimaContract.Init();\n        return _blockNumber;\n    }\n\n    function mint(\n        uint256 _stars,\n        string memory _data,\n        string memory _nonce,\n        uint256 _price,\n        bool _forSale,\n        address _receiver\n        )external isAdmin nonReentrant{\n\n        require(debt[_receiver],'user no pay');\n\n        hashimaContract.MintFor(\n            _stars, \n            _data,\n            _nonce, \n            _price, \n            _forSale, \n            _receiver\n        );\n        debt[_receiver]=false;\n    }\n    \n    //Funcion para que el dueo cambie el precio\n    function setMinPrice(uint256 _minPrice)public onlyOwner{\n        require(_minPrice>0);\n        minPrice=_minPrice;\n    }\n\n    function getPrice()external view returns(uint256){\n        return minPrice;\n    }\n\n    function withdraw(address _receiver)public onlyOwner{\n        uint256 totalAmount=address(this).balance;\n        (bool sent, ) = _receiver.call{value:totalAmount}(\"\");\n        require(sent,\"No cool withdraw\");\n    }\n\n}",
  "sourcePath": "/Users/aarontolentino/Documents/A-Hashimas/A-Hashimon/contracts/Server.sol",
  "compiler": {
    "name": "solc",
    "version": "0.8.3+commit.8d00100c.Emscripten.clang"
  },
  "schemaVersion": "3.4.1",
  "updatedAt": "2022-12-18T08:22:28.802Z",
  "networkType": "ethereum",
  "devdoc": {
    "kind": "dev",
    "methods": {
      "owner()": {
        "details": "Returns the address of the current owner."
      },
      "renounceOwnership()": {
        "details": "Leaves the contract without owner. It will not be possible to call `onlyOwner` functions anymore. Can only be called by the current owner. NOTE: Renouncing ownership will leave the contract without an owner, thereby removing any functionality that is only available to the owner."
      },
      "transferOwnership(address)": {
        "details": "Transfers ownership of the contract to a new account (`newOwner`). Can only be called by the current owner."
      }
    },
    "version": 1
  },
  "userdoc": {
    "kind": "user",
    "methods": {},
    "version": 1
  }
}