{
  "contractName": "SigningSystem",
  "abi": [
    {
      "inputs": [
        {
          "internalType": "contract ERC721Hashima",
          "name": "_contract",
          "type": "address"
        }
      ],
      "stateMutability": "nonpayable",
      "type": "constructor"
    },
    {
      "anonymous": false,
      "inputs": [
        {
          "indexed": true,
          "internalType": "address",
          "name": "previousOwner",
          "type": "address"
        },
        {
          "indexed": true,
          "internalType": "address",
          "name": "newOwner",
          "type": "address"
        }
      ],
      "name": "OwnershipTransferred",
      "type": "event"
    },
    {
      "inputs": [],
      "name": "owner",
      "outputs": [
        {
          "internalType": "address",
          "name": "",
          "type": "address"
        }
      ],
      "stateMutability": "view",
      "type": "function"
    },
    {
      "inputs": [],
      "name": "renounceOwnership",
      "outputs": [],
      "stateMutability": "nonpayable",
      "type": "function"
    },
    {
      "inputs": [
        {
          "internalType": "address",
          "name": "newOwner",
          "type": "address"
        }
      ],
      "name": "transferOwnership",
      "outputs": [],
      "stateMutability": "nonpayable",
      "type": "function"
    },
    {
      "inputs": [
        {
          "internalType": "address",
          "name": "smart_contract",
          "type": "address"
        },
        {
          "internalType": "uint256",
          "name": "tokenId",
          "type": "uint256"
        }
      ],
      "name": "sign",
      "outputs": [],
      "stateMutability": "nonpayable",
      "type": "function"
    },
    {
      "inputs": [
        {
          "internalType": "address",
          "name": "smart_contract",
          "type": "address"
        },
        {
          "internalType": "uint256",
          "name": "hashimaID",
          "type": "uint256"
        }
      ],
      "name": "isSigned",
      "outputs": [
        {
          "internalType": "bool",
          "name": "",
          "type": "bool"
        }
      ],
      "stateMutability": "view",
      "type": "function"
    }
  ],
  "bytecode": "0x608060405234801561001057600080fd5b50604051610a35380380610a3583398181016040528101906100329190610176565b61004e61004361009560201b60201c565b61009d60201b60201c565b80600160006101000a81548173ffffffffffffffffffffffffffffffffffffffff021916908373ffffffffffffffffffffffffffffffffffffffff160217905550506101fa565b600033905090565b60008060009054906101000a900473ffffffffffffffffffffffffffffffffffffffff169050816000806101000a81548173ffffffffffffffffffffffffffffffffffffffff021916908373ffffffffffffffffffffffffffffffffffffffff1602179055508173ffffffffffffffffffffffffffffffffffffffff168173ffffffffffffffffffffffffffffffffffffffff167f8be0079c531659141344cd1fd0a4f28419497f9722a3daafe3b4186f6b6457e060405160405180910390a35050565b600081519050610170816101e3565b92915050565b60006020828403121561018857600080fd5b600061019684828501610161565b91505092915050565b60006101aa826101c3565b9050919050565b60006101bc8261019f565b9050919050565b600073ffffffffffffffffffffffffffffffffffffffff82169050919050565b6101ec816101b1565b81146101f757600080fd5b50565b61082c806102096000396000f3fe608060405234801561001057600080fd5b50600436106100575760003560e01c80635ff64f6d1461005c578063715018a6146100785780638da5cb5b14610082578063b2021e37146100a0578063f2fde38b146100d0575b600080fd5b61007660048036038101906100719190610509565b6100ec565b005b610080610243565b005b61008a610257565b60405161009791906105ef565b60405180910390f35b6100ba60048036038101906100b59190610509565b610280565b6040516100c7919061060a565b60405180910390f35b6100ea60048036038101906100e591906104e0565b6102e8565b005b6100f461036c565b6000811415610138576040517f08c379a000000000000000000000000000000000000000000000000000000000815260040161012f90610645565b60405180910390fd5b600260008373ffffffffffffffffffffffffffffffffffffffff1673ffffffffffffffffffffffffffffffffffffffff168152602001908152602001600020600082815260200190815260200160002060009054906101000a900460ff16156101d6576040517f08c379a00000000000000000000000000000000000000000000000000000000081526004016101cd90610665565b60405180910390fd5b6001600260008473ffffffffffffffffffffffffffffffffffffffff1673ffffffffffffffffffffffffffffffffffffffff168152602001908152602001600020600083815260200190815260200160002060006101000a81548160ff0219169083151502179055505050565b61024b61036c565b61025560006103ea565b565b60008060009054906101000a900473ffffffffffffffffffffffffffffffffffffffff16905090565b6000600260008473ffffffffffffffffffffffffffffffffffffffff1673ffffffffffffffffffffffffffffffffffffffff168152602001908152602001600020600083815260200190815260200160002060009054906101000a900460ff16905092915050565b6102f061036c565b600073ffffffffffffffffffffffffffffffffffffffff168173ffffffffffffffffffffffffffffffffffffffff161415610360576040517f08c379a000000000000000000000000000000000000000000000000000000000815260040161035790610625565b60405180910390fd5b610369816103ea565b50565b6103746104ae565b73ffffffffffffffffffffffffffffffffffffffff16610392610257565b73ffffffffffffffffffffffffffffffffffffffff16146103e8576040517f08c379a00000000000000000000000000000000000000000000000000000000081526004016103df90610685565b60405180910390fd5b565b60008060009054906101000a900473ffffffffffffffffffffffffffffffffffffffff169050816000806101000a81548173ffffffffffffffffffffffffffffffffffffffff021916908373ffffffffffffffffffffffffffffffffffffffff1602179055508173ffffffffffffffffffffffffffffffffffffffff168173ffffffffffffffffffffffffffffffffffffffff167f8be0079c531659141344cd1fd0a4f28419497f9722a3daafe3b4186f6b6457e060405160405180910390a35050565b600033905090565b6000813590506104c5816107c8565b92915050565b6000813590506104da816107df565b92915050565b6000602082840312156104f257600080fd5b6000610500848285016104b6565b91505092915050565b6000806040838503121561051c57600080fd5b600061052a858286016104b6565b925050602061053b858286016104cb565b9150509250929050565b61054e816106b6565b82525050565b61055d816106c8565b82525050565b60006105706026836106a5565b915061057b826106fe565b604082019050919050565b6000610593600b836106a5565b915061059e8261074d565b602082019050919050565b60006105b6600e836106a5565b91506105c182610776565b602082019050919050565b60006105d96020836106a5565b91506105e48261079f565b602082019050919050565b60006020820190506106046000830184610545565b92915050565b600060208201905061061f6000830184610554565b92915050565b6000602082019050818103600083015261063e81610563565b9050919050565b6000602082019050818103600083015261065e81610586565b9050919050565b6000602082019050818103600083015261067e816105a9565b9050919050565b6000602082019050818103600083015261069e816105cc565b9050919050565b600082825260208201905092915050565b60006106c1826106d4565b9050919050565b60008115159050919050565b600073ffffffffffffffffffffffffffffffffffffffff82169050919050565b6000819050919050565b7f4f776e61626c653a206e6577206f776e657220697320746865207a65726f206160008201527f6464726573730000000000000000000000000000000000000000000000000000602082015250565b7f43616e6e6f742062652030000000000000000000000000000000000000000000600082015250565b7f416c7265616479207369676e6564000000000000000000000000000000000000600082015250565b7f4f776e61626c653a2063616c6c6572206973206e6f7420746865206f776e6572600082015250565b6107d1816106b6565b81146107dc57600080fd5b50565b6107e8816106f4565b81146107f357600080fd5b5056fea26469706673582212205fb5579a060dd2d97a3b74131879a7f475a68bb82f18f8f399389b4d4bb7da8964736f6c63430008030033",
  "immutableReferences": {},
  "source": "// SPDX-License-Identifier: MIT\n\nimport \"@openzeppelin/contracts/access/Ownable.sol\";\nimport \"./ERC721Hashima.sol\";\n\npragma solidity ^0.8.0;\n\n\n// Interfaz para implementar sistema de firma en un NFT\ncontract SigningSystem is Ownable{\n\n    ERC721Hashima BASE_CONTRACT;\n\n    constructor(ERC721Hashima _contract){\n        BASE_CONTRACT=_contract;\n    }\n\n    mapping(address=>mapping(uint256=>bool))private SIGNED;\n\n    function sign(address smart_contract,uint256 tokenId)external onlyOwner{\n        require(tokenId!=0,'Cannot be 0');\n        require(!SIGNED[smart_contract][tokenId],'Already signed');\n        SIGNED[smart_contract][tokenId]=true;\n    }\n\n    function isSigned(address smart_contract,uint256 hashimaID)external view returns(bool){\n        return SIGNED[smart_contract][hashimaID];\n    }\n}",
  "sourcePath": "/Users/aarontolentino/Documents/A-Hashimas/A-Hashimon/contracts/SigningSystem.sol",
  "compiler": {
    "name": "solc",
    "version": "0.8.3+commit.8d00100c.Emscripten.clang"
  },
  "schemaVersion": "3.4.1",
  "updatedAt": "2022-12-18T08:07:42.254Z",
  "devdoc": {
    "kind": "dev",
    "methods": {
      "owner()": {
        "details": "Returns the address of the current owner."
      },
      "renounceOwnership()": {
        "details": "Leaves the contract without owner. It will not be possible to call `onlyOwner` functions anymore. Can only be called by the current owner. NOTE: Renouncing ownership will leave the contract without an owner, thereby removing any functionality that is only available to the owner."
      },
      "transferOwnership(address)": {
        "details": "Transfers ownership of the contract to a new account (`newOwner`). Can only be called by the current owner."
      }
    },
    "version": 1
  },
  "userdoc": {
    "kind": "user",
    "methods": {},
    "version": 1
  }
}